:020000040800F2
:1000000080080020B5010008914100085B3E00080F
:10001000ED40000809240008214800080000000005
:100020000000000000000000000000006B4200081B
:100030004124000800000000694200086D420008E9
:10004000CF010008CF010008CF010008CF01000850
:10005000CF010008CF010008CF010008CF01000840
:1000600043240008CF010008CF010008CF01000899
:10007000CF010008CF010008CF010008CF01000820
:10008000CF010008CF010008CF010008CF01000810
:10009000CF010008CF010008CF010008CF01000800
:1000A000CF010008CF010008CF010008CF010008F0
:1000B000CF010008CF010008CF010008CF010008E0
:1000C000CF010008CF010008CF010008CF010008D0
:1000D000CF010008B1470008CF010008CF01000898
:1000E000CF010008CF010008CF01000800F002F89E
:1000F00000F050F80AA090E8000C82448344AAF172
:100100000107DA4501D100F045F8AFF2090EBAE86F
:100110000F0013F0010F18BFFB1A43F0010318473B
:10012000C8580000E8580000103A24BF78C878C1C9
:10013000FAD8520724BF30C830C144BF04680C60ED
:10014000704700000023002400250026103A28BF35
:1001500078C1FBD8520728BF30C148BF0B60704739
:10016000662905F03383642900F05A800020704727
:100170001FB500F0F7FE04000020002104F042FE4D
:10018000401C60600020002104F026FEE0601FBDDE
:1001900010B510BD01F0ACF91146FFF7E9FF04F00E
:1001A000BFFC01F0FDFB03B4FFF7F2FF03BC01F05D
:1001B00063FC00000948804709480047FEE7FEE766
:1001C000FEE7FEE7FEE7FEE7FEE7FEE7FEE7FEE707
:1001D00004480549054A064B70470000E9420008FB
:1001E000ED0000088002002080080020800400202C
:1001F000800400200FB41CB5084B06AA7B44694656
:100200000090059800F091FB04460020694600F03C
:100210009FFB20461CBC5DF814FB0000510700004A
:100220002DE9F0410646002410687529314616A5CF
:1002300010D0AFF30080002802DA404213A507E097
:1002400031688A0701D512A502E0490704D511A536
:10025000012401E0AFF3008000210A2206F1240707
:1002600009E0B0FBF2FCB0FBF2F302FB1C00303003
:1002700078541846491C0028F3D123462A463046B4
:10028000BDE8F04100F0E3B8000000002D000000E0
:100290002B000000200000002DE9F0474FF0000A7D
:1002A00089460446C0F820A02046E1688847002817
:1002B00076D0252806D0D4E901219047206A401C39
:1002C0002062F1E7E168204600258847C4F81CA0B9
:1002D00006460027C4F818A02A2E09D0304604F09C
:1002E00044FB38B304EB8708303EC8F8186019E0C7
:1002F00059F8041B204604EB87029161E1688847A6
:10030000012F064618D1E069002820DA25F02005E3
:100310001DE0D8F8180000EB800006EB40003038F4
:10032000C8F818002046E1688847064604F01DFB1F
:100330000028EED1012F0AD02E2E08D12046E168E8
:1003400088477F1C0646022F45F02005C4DBA069C4
:10035000002803DA404245F00105A061E80701D01A
:1003600025F01005B6B1A6F14100192802D82036B3
:1003700045F400654A463146204625604D46FFF764
:10038000EFFE58B1012806D0ED1D25F0070000F161
:10039000080989E704E005F1040985E730468AE7A2
:1003A000206ABDE8F08700000FB400B58DB010A939
:1003B000099000910B904FF0FF300A9000200C90B4
:1003C000064878440690064878446A4607900F9994
:1003D00009A800F045FD0DB05DF814FBBB0A000054
:1003E000D30A00004FF0000200B51346944696462B
:1003F000203922BFA0E80C50A0E80C50B1F1200138
:10040000BFF4F7AF090728BFA0E80C5048BF0CC0E5
:100410005DF804EB890028BF40F8042B08BF704743
:1004200048BF20F8022B11F0804F18BF00F8012BB5
:10043000704770477047704710B500F097FD00682F
:1004400010BD10B5044600F091FD046010BD2DE90B
:10045000F0470D4699469246044600F1240801688B
:10046000880604D5E06921F01001216000E0012038
:10047000A84201DD471B00E00027A1697A1902EBC1
:100480000900081AA0612078C00602D42046AFF304
:100490000080002608E0D4E901211AF80600904700
:1004A000206A401C761C20624E45F4DB2078C00692
:1004B0000AD52046AFF3008006E0D4E901213020C0
:1004C0009047206A401C2062381EA7F10107F4DC27
:1004D00007E0D4E9012118F805009047206A401C84
:1004E0002062281EA5F10105F3DC2046AFF3008051
:1004F0002078000602D50220BDE8F0870120FBE746
:1005000070472DE9FF4F0C461E464FF0FF378BB06A
:10051000D2E90001DDF860800A908A46C1F30A55ED
:1005200005B93D46002108464FF00000BAF1000F22
:1005300000F4400005DA00EB80004FF4400101EACE
:1005400050004FEA9059B9F1010F00DDB9460A9801
:1005500050EA4A000ED044F61050A5F2FF3545434C
:100560002F14B8F1000F1ED07542291E1EDDC9F1EF
:1005700000021CE0B8F1010F4FF0000001D0302163
:1005800003E0F24305E02154401CB042FBDB30465F
:100590000022002121540B99C1F80880C1E90020F4
:1005A0000FB0BDE8F08FBD1B6D1CDEE74A4600DAD8
:1005B000694206A800F026FF06AB93E8070003ABEC
:1005C00083E8070050460A9901F05DFA8DE80700BC
:1005D000A0F500501F3800900398002D0ADD42F26C
:1005E0001F014A460844002303A90390684601F00E
:1005F00009FD09E0A0F500504A461F38002303A971
:100600000390684601F028FD8DE807000004000C07
:1006100003D04FF0FF30410800E01046B8F1000F62
:1006200003D00022009215461EE0751E05D400F08E
:10063000A1FC303262556D1EF9D5B3460122084344
:1006400002D000227F1C04E02078302801D1002253
:100650007F1E002A099784D01DE0112D07DA00F0D3
:1006600089FC303262556D1C50EA0102F5D1084315
:1006700002D00098C8B10EE00021681E05E0235C9E
:10068000625C63542254401E491C8142F7DBAB4636
:10069000A81B401E0990002004F80B000B98099A33
:1006A000C0F80880C0E9002B7AE711264FF0000857
:1006B00057E72DE9F04F88460446D21D22F0070186
:1006C00091B0D1E90001CDE90A0104F0AAF802468F
:1006D0000B98C00F01D02D2007E02068810701D5BD
:1006E0002B2002E0202101EAC000032A099001D05A
:1006F000072A05DB03464146204600F089FC0BE152
:100700002078800601D5E06900E00620B8F1650F89
:10071000814606D0B8F1660F18D0B8F1670F70D1D6
:1007200031E00020B9F1110F009001DB112301E04D
:1007300009F101030AAA01A90CA8FFF7E2FEDDE90D
:100740000C70002609F10105834647E001204B4665
:1007500000904FF000470AAA01A90CA8FFF7D1FEAC
:10076000DDE90DB00C995D46002610B909F10100D4
:100770000D18B9EB050003D4C0F1FF3609F10105EE
:10078000A5EB09002BE0B9F1010F01DA4FF00109E7
:100790000020B9F1110F0090484601DD112300E05F
:1007A00003460AAA01A90CA8FFF7ABFEDDE90C700D
:1007B0004D4600268346207800070AD4AB4500DA70
:1007C0005D4601A8012D04DD411911F8011C3029F5
:1007D00007D04F4502DA17F1040F04DA01208246F0
:1007E0000FE06D1EEEE7002F02DCED1B3E4403E040
:1007F000781CA84200DD7D1CB81B00F1010A4FF0F7
:1008000000472078000703D4AA4501DB4FF0FF3AE8
:100810000021B7F1004F0DF143088DF8431024D0AB
:1008200002202B23002F01DA7F422D230A21021EF2
:10083000A0F1010000DC5FB197FBF1FC97FBF1F246
:1008400001FB1C7C17460CF1300C08F801CDEEE7DB
:10085000A8F1010003702188090501D5452100E0B8
:100860006521A0F1010800F8011C09980FA9A1EB6E
:100870000807FF1D00B10120411901EBEA70A169D1
:100880003844081A401EA0612078C00602D42046D1
:10089000AFF30080099828B1D4E901219047206A7C
:1008A000401C20622078C00622D52046AFF300808D
:1008B0001EE0002E04DBB34502DD01A8805D00E0F0
:1008C0003020D4E901219047206A401C2062761C28
:1008D000AAF101005FEA000A0AD100F043FBC068F8
:1008E0000168405CD4E901219047206A401C2062E5
:1008F000281EA5F10105DCDC07E0D4E9012118F888
:10090000010B9047206A401C2062381EA7F10107A6
:10091000F3DC2046AFF30080032011B041E6000075
:1009200001694A1C02610878704700B58FB0CDE9B3
:1009300001310021059105497944CDE903101146A3
:100940006846FFF7A9FC0FB000BD0000E5FFFFFF00
:100950000A6802F8010B0A60704700002DE9FF4F9A
:1009600006468BB00878FF2806D0491C2D2805D0F4
:1009700000244FF0000908E000200CE00124F8E713
:1009800009EB8903491C00EB43090878FF28F7D1DC
:1009900014B1C9F100008146107800252C46AA4602
:1009A00029462D2801D02B2804D1521C2D2813D0E4
:1009B000002082468B461078FF280FD04FF0000CA5
:1009C0000A21521CA5FB017804FB018105FB0C11D7
:1009D000C5194BEB0104EEE70120EAE700210846C8
:1009E0004FF00000BAF1000F02D000EB8000400889
:1009F000C0F38157012F01DD4FF0FF370E9955EA03
:100A0000040009EB01080BD04FF0020918F5FA7F3A
:100A100016DA4FEACA70002F706008DD012007E087
:100A20004FEACA70C6E900B00FB0BDE8F08F0020F1
:100A3000306000F09BFAC0F800901821084616E0DC
:100A4000B8F5FA7F18DD002F02DAF748784401E0A4
:100A5000F6487844D0E90010C6E9001040EACA70B0
:100A6000706000F083FAC0F80090142108460FB0BF
:100A7000BDE8F04F04F0A7BE002108464FF000008B
:100A8000B8F10001099002DAC7F1000200E03A462D
:100A900001DAC8F1000106A800F0B4FC06AB93E847
:100AA000070003AB83E8070044F23E005BEA040161
:100AB0000090584604D144F21E012C465D46009138
:100AC000210C0904014306D10099240444EA154489
:100AD0002D041039009104F07F41014306D10099A3
:100AE000240244EA15642D020839009104F0704193
:100AF000014306D10099240144EA15742D01091F10
:100B0000009104F04041014306D10099A40044EA59
:100B10009574AD00891E009104F00041084304D192
:100B200000986D196441401E00904FF001033A4651
:100B30006846B8F1000FCDE9014503A902DD01F0D7
:100B4000A0FA01E001F073FABAF1000F04460D4675
:100B500001D084F00044002108464FF000000999BC
:100B600040F2FF77484010F00C0F07D124F000400E
:100B7000284303D0C4F30A50B84212D100F0F6F96A
:100B8000C0F80090C4F30A50B8420AD1A84878448B
:100B9000D0E90010C6E9001004F00041084370607D
:100BA00042E7C6E900543FE72DE9FF4F1F464FF0EB
:100BB000000A4FF0FF38454691B0D7E90146CDF81D
:100BC0003CA000F0CFF9C0680168405C1090B969A2
:100BD00012986D1C8847396A814688470028F6D1EB
:100BE000B9F1FF3F0AD0002E24F4D06411DDB9F131
:100BF0002B0F08D0B9F12D0F0BD102E0404615B0F4
:100C000013E744F48064B96912986D1C8847761E16
:100C10008146600504A901D52D2000E02B20002E7F
:100C200001F1010B0DF130088DF810003FDDB9F135
:100C3000690F08D0B9F1490F05D0B9F16E0F02D094
:100C4000B9F14E0F1CD13B4601A8009580E8500237
:100C5000DDE912126FF0020004F044FEC11CCED197
:100C60000EE0B96912986D1C884781461398761E6C
:100C700044F4007405600F98401C002E0F9016DDA0
:100C8000B9F1300FEDD0B9F1780F02D0B9F1580FAA
:100C90000DD10F9801280AD13B46CDE90054DDE97A
:100CA0001212001F029604F01BFEC11CA7D110995E
:100CB00089453ED144F0800406E01399681CAAF1EE
:100CC000010A44F400740860B9696D1C1298761E1C
:100CD000884730288146F0D02BE01099894505D10E
:100CE000200603D4761E44F0800418E0484603F042
:100CF0003CFE08B3761E0DF123018B4544F40074CD
:100D000008D2A9F130000BF8010B200607D5AAF193
:100D1000010003E0200602D40AF101008246A0058A
:100D200002D51399681C0860B96912986D1C884730
:100D30008146002ED1DC53E0002E51DDB9F1650F64
:100D400002D0B9F1450F4BD1A00549D5B9696D1C49
:100D50001298761E24F440748847002E81460CDDDC
:100D60002B2804D0B9F12D0F07D144F48074B96950
:100D700012986D1C8847761E8146E00501D52D210D
:100D800000E02B2108F8011BCDF8008021E0761E41
:100D90000DF13901884544F400740CD2A9F13000FA
:100DA00010F0FF0088F8000002D10099884509D9A9
:100DB00008F1010806E0E00501D51E4801E042F215
:100DC0000F708246B96912986D1C88478146139846
:100DD0000560002E04DD484603F0C7FD0028D6D18B
:100DE000F96912988847FF2053468BF8000088F86D
:100DF000000000200A900B9004AA0CA90AA8FFF793
:100E0000ADFDA00502D46FF00100F8E614F0240F48
:100E100012D0E0071CD13868DDE90A12031D3B60DF
:100E20000068C0E9001213E0C04F0000B24F00009C
:100E3000764E0000F1D8FFFF0AA9684603F024FDB2
:100E4000E00705D13868009A011D3960006802602A
:100E50002846D4E6026811441378016018467047AA
:100E6000D1600549794451610449794411620021F6
:100E70001161114600F00CB9EDFFFFFF9101000078
:100E8000426842B1016811F8013B23B1521EC0E92A
:100E90000012184670470121C160881E70474268E1
:100EA0005AB1C368016843B983688B4205D0491EB3
:100EB000521CC0E90012002070474FF0FF3070470D
:100EC0000FB4002300B589B00CA900910B99CB6039
:100ED000214B7B440693214B7B44079304236FF003
:100EE0000042CDE901321E4A7A446B46089202461E
:100EF000002004F0F3FC09B05DF814FB70B5064661
:100F00004FF0FF3015460C46324686B00091CDE9D1
:100F1000010169460020049004A8FFF7D1FF0246B2
:100F20000498211825B108B1084600E02046286041
:100F3000049800280DD0002A02DD0098884208D0CD
:100F40003246081B69460094CDE9010404A8FFF766
:100F5000B7FF06B070BD0000ABFFFFFFC3FFFFFF90
:100F600013010000004870473C0200200048704711
:100F70001C02002030B5B0F10A024FEA900E71F168
:100F800000034EEA817EB0EB0E0061EB91014FEA67
:100F9000101E4EEA017E10EB0E0041EB11114FEADC
:100FA000102E4EEA016E10EB0E0041EB11214FEABC
:100FB000104E4EEA014E10EB0E0041EB114140186D
:100FC00041F100014FEAD00040EA41704FEAD101FF
:100FD00010EB80054FEA810444EA907444EB01046D
:100FE0006D1944EB0404521BA3414FF0000348BFAA
:100FF0000A3200D530BD401C41F1000130BD10B5B2
:10100000044600F09BFA0068005D00F0010010BD8E
:101010002DE9F0411F46044603260168072A01F422
:10102000006004DB08B116A505E016A503E008B1D1
:1010300015A500E015A521F010002060A069C01ED4
:10104000A0610FB1401EA0612046AFF300804FB1F8
:10105000D4E9012138469047206A401C2062C01C18
:10106000206206E0206AFAE7D4E9012115F8010BB5
:101070009047761EF8D22046AFF30080BDE8F0819D
:101080004E414E006E616E00494E4600696E66002C
:101090002DE9F34F4FF0000A0C4656468DB0012063
:1010A0000C9001F10C000B9062690B9801219047A4
:1010B000051E2DD0252D2CD0216A8847C0B162692C
:1010C0000B9801219047216A88470028F7D162696F
:1010D000411E0B98904700E0761CA1690D98884747
:1010E000216A88470028F7D1E1690D988847DBE736
:1010F000A1690D988847A842074601D1761CD3E71D
:10110000E1690D9888477F1C02D1BAF1000F6FD0BA
:101110006BE162690B9800273D46394690472A28C3
:1011200004D162690B98012190470125DFF8D08234
:1011300062690B9801219047A0F130010A290AD277
:101140004745E5DC07EB870100EB4107303FDFD483
:1011500045F01005ECE7E90601D46FF000476C2874
:101160000AD04C2814D0682815D06A280DD07428CD
:101170001CD07A281AD01DE062690B980121904793
:101180006C2802D045F0040514E045F002050DE09E
:1011900045F020050AE062690B9801219047682814
:1011A00002D045F0080505E045F4006562690B983A
:1011B00001219047C4E9015765283DD019DC582822
:1011C0007AD00CDC452837D004DC252826D04128ED
:1011D0009ED131E046282FD0472899D12CE05B28BA
:1011E00077D0612828D063287CD0642823D15AE0A6
:1011F000F6E06F2848D008DC66281DD067281BD091
:10120000692821D06E2816D127E0702845D0732890
:1012100068D0752847D078280DD14DE0A1690D9888
:101220008847252805463FF469AFE1690D9888474E
:101230006D1C3FF46AAFD8E00D9923466A466FF003
:10124000010004F04BFBC5E045F0400023464FF0A1
:1012500000026060A80736D43EE0E8077FF447AF9D
:101260002068011D21600068290501D506701BE773
:10127000290701D5068017E7A90703D5F117C0E9AB
:10128000006111E706600FE745F0400023464FF08C
:1012900008026060A80716D41EE040F60E0125EA99
:1012A0000100606016E045F0400023464FF00A025E
:1012B0006060A80707D40FE045F040006060A80711
:1012C00008D5234610220D996FF00100AFF300807E
:1012D00080E007E0102223460D996FF00100AFF384
:1012E000008077E04FF0000963284F46C8464B4620
:1012F000CB4602D05B2806D038E0E80601D40120B6
:10130000A060012732E06269D4F80CB00B9801218B
:1013100090475E2807D14FF0010949466269D4F829
:101320000CB00B989047216939B900210A4603ABEC
:1013300043F82120491C0829FADBD8B3216949B3B5
:1013400008F1010862690B98012190475D28F4D1EA
:10135000B9F1000F09D0002003A951F82020D24391
:1013600041F82020401C0828F7DB03AB2069002847
:1013700020794FEA40701ED05B462246CDF80080AF
:10138000CDE901970D9900286FF0010020DAAFF345
:1013900000801FE0C11703AA00EBD1614B1121F0BF
:1013A0001F0102EB8302411A1368012088400343A6
:1013B0001360C7E719E00D99224600286FF001007D
:1013C000009702DAAFF3008004E0AFF3008001E0A1
:1013D000AFF3008000280ADA401C06D10C9820B137
:1013E0004FF0FF300FB0BDE8F08F5046FAE7E90745
:1013F00001D10AF1010A064400200C9054E60000D5
:10140000CCCCCC0C2DE9F047814616468AB0354845
:1014100078440DC88DE80D0032487844801C03AC38
:101420000DC884E80D0041F69B300844372190FB3D
:10143000F1F290FBF1F5A5F1800501FB12041B3CD4
:1014400002D56442012000E00020DFF898A0804629
:101450000027FA44AAF1BE0A0EE0E0070AD032469D
:10146000684607EB470101230AEB810100F0F4FD18
:101470008DE8070064107F1C002CEED1194F7F44CB
:10148000AE3F19E0E80715D007EB04100DF1180A7C
:1014900090E80E008AE80E00C068F04201D1981969
:1014A00008903246012306A903A800F0D5FD03AB3E
:1014B00083E807006D10641C002DE3D14FF0010399
:1014C00032466946B8F1000F03A802D000F09AFD39
:1014D00001E000F0C1FDC9E90001C9F808200AB027
:1014E000BDE8F087BC450000004870471C020020A2
:1014F0007546FFF7F9FFAE4605006946534620F0F2
:101500000700854618B020B5FEF762FEBDE8204012
:101510004FF000064FF000074FF000084FF0000BAF
:1015200021F00701AC46ACE8C009ACE8C009ACE862
:10153000C009ACE8C0098D467047000010B5FFF740
:1015400011FD001D10BD00BFBD3800002DE9FF4F8B
:101550001F464FF03C0987B04FF00042DDE9141000
:1015600001F10108DDF858A002EA40500390002084
:1015700005908346054604460490B969461E0898BE
:101580008847AAF1010A0290BAF1000F3BDD0298E8
:101590002E2815D0102100F060FA00282EDB4FF025
:1015A000010B0599014317D0B9F1000F0BDB4A4637
:1015B000C11700F03FFA05430C43A9F1040905E007
:1015C000012004900BE008B145F0010501200590D1
:1015D000049820B9361D02E0049800B1361FB9699D
:1015E000089808F101088847BBF1000FAAF1010A29
:1015F0000290C9D00999C1F80080C5E70298702807
:1016000008D0502806D0F96908988847BBF1000F28
:1016100014D04FE0002002900120BBF1000F049095
:1016200009D0B969089808F101088847AAF10109A9
:10163000B9F1000F07DCF969089888476FF00100DD
:101640000BB0BDE8F08F2B2804D02D280CD14FF023
:10165000FF300490B969089808F101088847A9F19A
:101660000109B9F1000FE6DD411CE4D00A2100F0C8
:10167000F4F90028DFDB029908F1010801EB810190
:1016800000EB41000290B969089888470A2100F0F0
:10169000E4F9099AA9F10109B9F1000FC2F8008033
:1016A00001DD0028E7DAF96908988847049902986B
:1016B00000FB016655EA040004D004F04041090033
:1016C00002D006E0039898E0A40044EA9574AD00C7
:1016D000B61E04F00041080002D16D196441761E67
:1016E000159810F0240F03D04FF00B095C4803E06D
:1016F0004FF028096FF07D008246564507DAAAEBC5
:1017000006018944B9F1410F01DD4FF04109012083
:101710000021A9F1010200F08DF9024628400B4694
:101720002140084301D0012100E00021501E029118
:1017300043F1FF3128402140084301D0012000E05F
:1017400000200299834651EA0B014FD00021084640
:101750004FF00000039900F4400039B100EB800025
:101760004FF4400100EBD07001EA600080150128C1
:1017700002DD4FF0FF3000E013D0401C36D002985D
:1017800060B3BBF1000F0CD14A460120002100F0EC
:1017900051F928402140084301D0012000E00020F9
:1017A000E0B101204A46002100F044F90346401907
:1017B0000A4661412D1A8C4111D3B9F1400F09DD60
:1017C000159810F0240F02D0AAF1340603E0AAF114
:1017D000170600E0761C00254FF0004406E05B1E73
:1017E00042F1FF3220EA030521EA0204CAF10100B6
:1017F000B04206DA1B49039808430190002000908C
:101800000EE0039AC4F3D321E80A0A43164940EADA
:1018100044500A433146CDE90002684603F09AF885
:10182000159810F0240F0BD01598C00715D1386803
:10183000DDE90012031D3B600068C0E900120CE006
:1018400002A8694603F020F81598C00705D138684A
:10185000029A011D3960006802604046F0E600000F
:1018600002FCFFFF0000F07F0000F03F2DE9FF4F7A
:1018700092461D4685B04FF00041DDE9124BDDE98F
:1018800014727F1E01EA4B50414940F0FF4940EA83
:101890000108002122F020004928049102D04E289E
:1018A00028D04CE03BA0012607C88DE80700A969B5
:1018B0000698641C88477F1E014606D41DF8060062
:1018C00018B121F0200181420BD0E96906988847C0
:1018D000032E34D0082E32D06FF0010009B0BDE8DD
:1018E000F08F761C032E01D0082EE0D1601CCAF8C0
:1018F0000000DCE7A9690698641C88477F1E2AD48B
:1019000020F02000412826D1A9690698641C884748
:101910007F1E20D420F020004E281CD1A9690698F3
:10192000641C88477F1E48F4002849F48009CAF8DF
:10193000004001D4282806D0E969069888475FEA64
:10194000CB7012D022E0A9690698641C88477F1EDC
:1019500001D4002803DAE96906988847BCE72928FA
:10196000F1D1641CCAF80040E9E71BF0240F07D04E
:1019700028680499031D2B600068C0E9001805E081
:101980002868021D2A600068C0F800902046A5E77C
:101990000000F07F494E46494E495459000000006E
:1019A00010B50446AFF300802046BDE81040FEF7B6
:1019B000FABB00004FF0013C50F8042B51F8043BF7
:1019C0009A4221D1A2EB0C03934313EACC1317D113
:1019D00050F8042B51F8043B9A4215D1A2EB0C03AA
:1019E000934313EACC130BD150F8042B51F8043B6A
:1019F0009A4209D1A2EB0C03934313EACC13DBD038
:101A00004FF00000704700BFD01A01BAB1FA81F15F
:101A100001F0180122FA01F0CB40C1F12001DBB244
:101A2000C0B2C01A2CFA01F3D11A914311EAC311C2
:101A3000E6D17047B2F120030AD5C2F1200301FAC2
:101A400002F120FA03F300FA02F041EA03017047C1
:101A500000FA03F14FF0000070473A2800D2303806
:101A600020F02002412A01D3A2F13700884201D39D
:101A70004FF0FF307047000001491820ABBEFEE771
:101A80002600020070475FEA400C08BF91F0000F8B
:101A90004FEA8C234FEAC12243EA51514FEA1C50CE
:101AA00018BF00F5F0404FEA300018BF41F0004188
:101AB0005FEA6C5C00F02980BCF1FF3F08BF40F09A
:101AC00080407047130C06BF12044FF0100C4FF00B
:101AD000000C130E04BF12020CF1080C130F04BF0C
:101AE00012010CF1040C930F04BF92000CF1020CD4
:101AF000D30F04BF52000CF1010C11464FF000024D
:101B0000A0F11F00A0EB0C00704711F0004F08BFC0
:101B1000704731F000413FF4D5AF0B0C06BF09040C
:101B20004FF0100C4FF0000C0B0E04BF09020CF12B
:101B3000080C0B0F04BF09010CF1040C8B0F04BF40
:101B400089000CF1020CCB0F04BF49000CF1010C11
:101B5000CCF12003A0EB0C0022FA03F302FA0CF202
:101B600041EA030100F10100704720F07F4C80EA58
:101B7000030023F07F47ACEB070303F57C5300F031
:101B8000004003F1FF032DE980494FEA154B09B4EA
:101B90004FEA144325EA0B4E24EA03480FF20426C9
:101BA00006EB132749083E785FEA320203FB06671B
:101BB000C7F5000707FB06F64FEA54374FEAD6464B
:101BC00006F1020607FB066CCCF1005C4FEA1C47ED
:101BD0002CEA074C07FB06F40CFB06F504EB154654
:101BE0004FEA961634BF00204FF000404FEAD1373D
:101BF00006FB07FC4FEA1C4C0CFB0BF7D21B03FB4C
:101C00000CF761EB07010CFB0EF7B0EB074072EB32
:101C100017420CFB08F734BFA2EB0742B2EB0742B6
:101C200061EB17414FEA0C444FEA910706FB07FCB2
:101C30004FEA1C4C0CFB0BF7B0EBC74072EB573272
:101C400003FB0CF734BFA2EBC742B2EBC74261EB18
:101C500057310CFB0EF7B0EBC70072EB57720CFB61
:101C600008F734BFA2EBC702B2EBC70261EB5771B2
:101C7000039F4FEA816141EA921104EBCC044FEAE1
:101C8000D1374FEA826206FB07FC42EA90124FEA24
:101C900080604FEA1C4C0CFB0BF7D21B03FB0CF7CC
:101CA00061EB07010CFB0EF7B0EB074072EB17423C
:101CB0000CFB08F734BFA2EB0742B2EB074261EB23
:101CC00017414FEA8C554FEA910704EB9C2406FB21
:101CD00007FC4FEA1C4C0CFB0BF7B0EBC74072EB58
:101CE000573203FB0CF734BFA2EBC742B2EBC7423B
:101CF00061EB57310CFB0EF7B0EBC70072EB57727C
:101D00000CFB08F734BFA2EBC702B2EBC70261EBD2
:101D1000577115EB4C254FEA816141EA92114FEA68
:101D200082624FEAD13742EA901206FB07FC44F187
:101D300000044FEA80604FEA1C4C0CFB0BF7D21BEF
:101D400003FB0CF761EB07010CFB0EF7B0EB074050
:101D500072EB17420CFB08F734BFA2EB0742B2EB61
:101D6000074261EB174115EB1C154FEA813141EA3F
:101D700092414FEA823242EA90424FEA80304FEA83
:101D80000C7644F1000448EA03434EEA0B484FF056
:101D9000000EB2EB080C71EB030724BF6246394614
:101DA0004EEB0E0E4FF0000B0018524149414BEB29
:101DB0000B0BB2EB080C71EB03077BF1000B24BF9C
:101DC000624639464EEB0E0E4FF0000B00185241A2
:101DD00049414BEB0B0BB2EB080C71EB03077BF1AA
:101DE000000B24BF624639464EEB0E0E51EA020745
:101DF00018BF46F0010616EB0E7655F1000254F1BD
:101E0000000103D5BDE88901BDE80088BDE889016E
:101E1000BDE80048B619524141EB0101A3F10103AD
:101E2000704780807F7E7D7C7B7A79787776767547
:101E30007473727171706F6E6E6D6C6C6B6A6A69BF
:101E40006868676666656464636362616160605F59
:101E50005F5E5E5D5D5C5C5B5B5A5A5959585857D2
:101E6000575656555555545453535252525151503A
:101E700050504F4F4F4E4E4D4D4D4C4C4C4B4B4B8D
:101E80004A4A4A49494948484847474747464646D3
:101E9000454545444444444343434342424242410E
:101EA0004141000046EA0646A3F570534FEA164644
:101EB00046EA42564FEAD22242EA415210B54FEA70
:101EC000D121A3F1010300F02FF820F0004000F130
:101ED000020C00F0004701EB00501146BCF5006F0A
:101EE00040EA070000D210BDBAF1000F0AD01CB5BD
:101EF00003B44FF004004FF004014FF000000FBC9A
:101F0000BDE810404FF00001BBF1010FB9BF04481C
:101F10004FF0FF310348002140EA070010BD00BF29
:101F2000FFFFEF7F0000F07F002B9C4630D477004E
:101F30002BD01CB54FEA370703B44FF010004FF019
:101F40001001BAF1000F06D0BCF1000FDCBF40F069
:101F5000080040F008014FF000000FBCBDE8104041
:101F60000BF1010BBBF1010F08BF5FEA170722BF9E
:101F700012F1010211F101014FF0004143F10003A0
:101F800000F0004043EA00007047F9D35708D0E75B
:101F900046EA064613F1400F4FEA16461FDD13F1DD
:101FA000200FDFBF16430A46002120335B42BED01C
:101FB000C3F1200746EA064602FA07F74FEA16463B
:101FC00046EA0706C3F1200722FA03F201FA07F7EF
:101FD00021FA03F14FF0000342EA0702A7E746EABD
:101FE000020646EA06464FEA164646EA0106BCBF26
:101FF00046EA0646360C4FF000034FF000024FF061
:10200000000194E72DE9804C9A46934670B491E81C
:10201000380007C831EA400C48BF34EA430C03D506
:10202000FFF7A3FDFFF780FFF0BCBDE8008C2DE9B2
:10203000804C9A46934670B491E8380007C831EA5C
:10204000400C48BF34EA430C03D5FFF78EFDFFF781
:1020500029FFF0BCBDE8008C2DE9804C9A469346E0
:1020600070B491E8380007C810F0804F08BF13F033
:10207000804F03D100F01AF8FFF756FFF0BCBDE81F
:10208000008C2DE9804C9A46934670B491E8380054
:1020900007C810F0804F08BF13F0804F03D100F045
:1020A00005F8FFF7FFFEF0BCBDE8008C20F07F478D
:1020B00080EA030023F07F4C07EB0C03A3F57C536D
:1020C00000F00040A3F1FE0392F0000F00F0B38097
:1020D00095F0000F00F077802DE901494FEA11409B
:1020E0004FEA144621EA004800FB06FC24EA0647B2
:1020F00008FB06F607FB08F800FB07F718EB064895
:102100004CEB164C4FEA124B18EB07484FEA1546BA
:102110004CEB174022EA0B4E0BFB06FC25EA064768
:102120000EFB06F607FB0EFE0BFB07F71EEB064E3B
:102130004CEB164C4FF000061EEB074E4CEB174BCA
:1021400018EB0B0840F1000018EB0E0B58EB0008E1
:1021500040F100008F1A4FF000013CBFC943661BDD
:1021600014BFB5EB040C00213CBFC943F61B4FEA7A
:1021700017444EEA8E0E27EA04454FEA1C4704FB3B
:1021800007622CEA074C05FB07F70CFB05F604FB7E
:102190000CFC16EB074642EB174216EB0C4642EBE3
:1021A0001C421BEB060658EB0202414146EA9E0622
:1021B00001D5BDE80189B619524141EB0101A3F1F6
:1021C0000103BDE801894FEA14454FEA114724EAAB
:1021D000054621EA074C05FB07F406FB07F70CFB55
:1021E00006F105FB0CFC11EB074144EB17444FEAE9
:1021F000124711EB0C4144EB1C4422EA074C05FB4F
:1022000007F206FB07F70CFB06F605FB0CFC16EBCA
:10221000074642EB174216EB0C4642EB1C456A1888
:1022200054F1000148BF7047B619524141EB01011A
:10223000A3F10103704795F0000F37D04FEA114228
:102240004FEA144721EA024624EA074C02FB07F151
:1022500006FB07F70CFB06F402FB0CFC14EB07442F
:1022600041EB17414FEA154714EB0C4441EB1C417D
:1022700025EA074C02FB07F506FB07F70CFB06F601
:1022800002FB0CFC16EB074645EB174516EB0C461C
:1022900045EB1C42121951F1000148BF7047B619B5
:1022A000524141EB0101A3F1010370474FEA14458C
:1022B0004FEA114724EA054621EA074C05FB07F1DE
:1022C00006FB07F70CFB06F24FF0000605FB0CFCC3
:1022D00012EB074241EB174112EB0C4251EB1C4150
:1022E00048BF7047921841EB0101A3F10103704709
:1022F00070B5044600688168C943C90717D1816871
:1023000021F00101816000F0CDFC05460AE000BF2C
:1023100000F0C8FC401B022804D920688068C04334
:10232000C00706D020688068C043C007F0D00020F6
:1023300070BDA06A40F01000A062E06A40F00100A9
:10234000E062012070BD0000F8B50026044600964A
:1023500000688168C943C9072DD0816841F0010137
:102360008160164816490068B0FBF1F000E0401E9D
:1023700000900028FBD100F095FC054616E000BF58
:1023800000F090FC401B022810D920688068C043F0
:10239000C0070BD0A06A40F01000A062E06A40F0D5
:1023A0000100E06284F824600120F8BD20688068A4
:1023B000C043C007E4D10020F8BD00004800002061
:1023C00040420F003EB56946009001200190072071
:1023D00002900C4800F06EF80A4800F063FA0A21F7
:1023E000084800F0C1F90028064803D000F0BAFA06
:1023F00000203EBD00F0DCF80446024800F0B2FACE
:1024000020463EBD8C000020FEE7000010B503F022
:102410001FF8074903F064F8064902F01FFF064958
:1024200002F01CFFBDE81040044903F059B8000059
:102430003333534000F07F4500007A4400C0F3443A
:102440007047042000F02CBB0148806870470000F2
:102450004C000020044900224A60C8600A808A605B
:102460003C2101F08FB900004C00002004480021FD
:102470004160C2681268516201808160704700004B
:102480004C00002010B5094CE0680068416A2088C3
:102490006268081A00B210446060218002F0C0FF38
:1024A000034903F01DF8A06010BD00004C0000209F
:1024B000CA269B3CF8B50024009490F824202546B9
:1024C000012A12D0012280F824204A681F23072AFB
:1024D0000DD20668776B521E02EB820293409F4337
:1024E0000B6893401F43776319E00220F8BD06682C
:1024F0000D2A0AD2376BD21F02EB820293409F4310
:102500000B6893401F43376309E0F76A0D3A02EB0B
:10251000820293409F430B6893401F43F7620A680F
:10252000072306680A2A0AD3F7680A3A02EB42022E
:1025300093409F438B6893401F43F76008E03769DF
:1025400002EB420293409F438B6893401F433761E5
:102550000A68102A01D0112A20D1124B02689A422F
:1025600017D193681B0219D4936843F40003936056
:102570000968102912D10C490C4A0968B1FBF2F123
:1025800001EB8101490000E0491E00910029FBD1C7
:1025900004E0816A41F020018162012480F8245026
:1025A0002046F8BD002401404800002040420F00B2
:1025B0000068C06C704700002DE9F0414FF0000743
:1025C00004003D467ED0A06A002628B9E66284F861
:1025D0002460204600F07EF82046FFF789FEA16ABD
:1025E000C90600D420B1A06A40F01000A06269E0E2
:1025F000A16A21F4885141F00201A1626268E16997
:10260000237B0A4347EA43010A43A1684FF48077DA
:10261000B94209D0012907D05FF0000194F814C035
:10262000BCF1010F02D00AE03946F7E7F3B1A36A23
:1026300043F02003A362E36A43F00103E3622368EB
:10264000D3F804C02CF4694C4CEA010CC3F804C064
:1026500021688B68DFF870C003EA0C0313438B60BA
:10266000A168B9420BD0012909D00CE0DFF85CC0A9
:10267000A3690CEB43330B4343F40061DFE7218A8A
:102680000D05A5F580152168CB6A23F470032B4353
:10269000CB62216889680E4B1940914208D1E662ED
:1026A000A16A21F0020141F00101A162BDE8F081BF
:1026B000A06A20F0020040F01000A062E06A40F042
:1026C0000100E0620120F1E7FDF7E1FF00E0FFFF1C
:1026D000FE0E1FFF00B585B000210091019102910F
:1026E00003911C4B02681C4803219A4215D1826950
:1026F00042F400728261826902F40072049282697B
:1027000042F008028261806900F008000490022013
:10271000CDE900016946114817E0114B9A4216D1E4
:10272000826942F480628261826902F4806204926A
:10273000826942F004028261806900F00400049022
:10274000C020CDE900016946064800F0B5F905B0A2
:1027500000BD00000024014000100240000C0140B8
:1027600000280140000801402DE9F84300270D46EC
:102770000446009700F096FA804620688168C905F3
:1027800008D5A06A40F02000A06284F824700120DF
:10279000BDE8F8834168C90503D4C06A10F4700F1E
:1027A0002AD0022000F01CFB3B490968B1FBF0F67F
:1027B0002068036939490B424FEA61014FEAA112CF
:1027C0001FD1C3684FEA611C13EA0C0F19D10369CA
:1027D0000B4225D1C068104222D1142023E0681C8E
:1027E0000AD02DB100F05EFAA0EB0800A84203D990
:1027F00020680068800725D5206800688007EED52E
:102800002DE003690B4202D1C168114206D0026972
:1028100023490A4206D1C068084203D1542002E08D
:10282000292000E0FC204643009816E0681C11D0E7
:102830002DB100F037FAA0EB0800A8420AD90098A1
:10284000B04207D2A06A40F00400A06284F824706D
:1028500003209DE70098401C0090B042E6D3216819
:102860006FF012000860A06A40F40070A062206857
:102870008068C0F3424007280CD1207B50B9A06A81
:1028800020F48070A062A06AC00403D4A06A40F063
:102890000100A06200207BE7480000202449922428
:1028A0004992240070B5044690F8240001280DD008
:1028B000012084F824002046FFF746FD02004FF077
:1028C000000005D084F82400104670BD022070BDC1
:1028D000A16A40F20123994341F48071A1621F4D26
:1028E00023681F49AB4218D10E6816F4702F14D01C
:1028F000A66A46F48016A6620E68760505D5A66A15
:1029000026F4005646F48056A662A66AF6040AD556
:10291000E66A26F00606E66206E0A66A26F4801657
:10292000A6625E68E9E7E06284F824006FF00200C6
:10293000186020688368C3F34243072B05D1A8427F
:1029400008D1096811F4702F04D0816841F4801116
:102950008160B9E7816841F4A001F9E700280140EE
:102960000424014010B5044690F82400012807D043
:10297000012084F824002046FFF7BAFC10B107E0DC
:10298000022010BDA16A21F4885141F00101A16229
:10299000002184F8241010BD10B590F821100022F9
:1029A000022905D00421816380F82020012010BD78
:1029B00001680B6823F00E030B6001680B6823F0BD
:1029C00001030B6090F84030C46B012101FA03F35E
:1029D000636080F8211080F82020104610BD0000B0
:1029E00010B590F821100024022903D0042181633E
:1029F00001243DE001680A6822F00E020A600168C5
:102A00000A6822F001020A601A4A0168914201D163
:102A1000012121E0174A1432914201D110211BE01B
:102A2000144A2832914201D1891515E0114A3C32ED
:102A3000914201D189140FE00E4A5032914202D1E5
:102A40004FF4803108E00B4A6432914202D14FF4D6
:102A5000801101E04FF08071064A083A516001216F
:102A600080F82110002180F82010416B01B18847C7
:102A7000204610BD0800024070B5044600F012F96F
:102A80000546601C02D004480078044400F00AF9AE
:102A9000401BA042FAD370BD3C00002070470000EC
:102AA000044910B50A68024202D00860FFF7F6FF39
:102AB00010BD0000140401402DE9F84FDFF8B89173
:102AC0000024A9F1040B23460F2709F1040AABF1F6
:102AD000040EC9E00125A5402A40AA427DD1674ED7
:102AE000D1F804C0ACEB0608B44532D014DCBCF11C
:102AF000030F3AD009DCBCF1000F2AD0BCF1010F62
:102B00001CD0BCF1020F31D11DE0BCF1110F17D068
:102B1000BCF1120F2AD119E0B8F5881F19D006DCD4
:102B2000B8F5803F15D0B8F5801F1FD111E0B8F57A
:102B3000001F0ED0B8F5041F18D10AE0CB6815E0CD
:102B4000CB681B1D12E0CB6808330FE0CB680C3359
:102B50000CE08B682BB1012B4FF0080303D04561CB
:102B600004E0042302E0056100E00023FF2A01D80D
:102B7000064601E000F104064FEA840501D9A5F1FB
:102B80002005D6F8008007FA05FC28EA0C0803FAAD
:102B900005F548EA0508C6F800804D68ED0062D5E5
:102BA000374DAE6946F00106AE61AD6924F003060B
:102BB00005F001050095334D06EB050CDCF80850D7
:102BC000A607360F07FA06F825EA0805DFF8B880E9
:102BD000404503D14FF0000817E044E0DFF8AC8037
:102BE000404502D14FF001080FE0DFF8A4804045D6
:102BF00002D14FF0020808E0DFF89880404502D18A
:102C00004FF0030801E04FF0040808FA06F848EA1C
:102C10000508CCF808804D68D9F80060ED024D46F3
:102C200001D5164300E096432E604D68DAF8006047
:102C3000AD02554601D5164300E096432E604D681F
:102C4000DBF80060AD035D4601D5164300E0964316
:102C50002E604D68DEF80060ED03754601D5164321
:102C600000E096432E60641C0D682A46E5407FF420
:102C700031AFBDE8F88F00000804014000001110DA
:102C8000001002400000014000080140000C01401B
:102C900000100140001401400AB1016170470904AD
:102CA000FBE7000001488068704700003C000020FE
:102CB0000248816802781144816070473C0000201E
:102CC000074810B5016841F010010160032000F0D1
:102CD00075F80F2000F006F800F024F8002010BD71
:102CE0000020024070B50D4D04464FF47A712878EB
:102CF000B1FBF0F00A490968B1FBF0F000F0A4FB69
:102D000048B9102C07D200222146501E00F036F898
:102D100000206C6070BD012070BD00003C000020F0
:102D2000480000200C4808B5816941F0010181612B
:102D3000816901F001010091C16941F08051C161D7
:102D4000C06900F0805000900448416821F0E061C3
:102D500041F00071416008BD0010024000000140D8
:102D6000002809DB00F01F0201219140400980008A
:102D700000F1E020C0F8001170470000F0B40E4BE5
:102D80001B680C46C3F30223C3F10705042D00D9C9
:102D90000425191D072901D2002300E0DB1E0126AE
:102DA00006FA05F1491E214099409E40761E1640C4
:102DB0003143F0BC01F049BD0CED00E0064900F0E4
:102DC000070208684FF6FF03184040EA0220034A52
:102DD00010430860704700000CED00E00000FA05A9
:102DE00010B501460020234C012922D0022939D0F8
:102DF00010291DD161682268D20119D51E48C1F37E
:102E00008342C903805C0AD561681B4AC1F3404113
:102E1000921E515C194AB2FBF1F1484301E0184996
:102E200048436168490203D440000321B0FBF1F03C
:102E300010BD226AC2F30121012903D1920701D5F5
:102E4000C80310BD022905D1626A920702D549F66E
:102E5000404010BD0329FCD121688903F9D54FF208
:102E6000244010BD00F02AF96168C1F38131491C8A
:102E70004900DBE7001002402C59000800127A00DC
:102E800000093D002DE9F84305460078354CC007A0
:102E900054D0E0690026C00008D4E06940F08050BA
:102EA000E061E069012600F0805000902E48016842
:102EB000C90512D40168804641F480710160FFF7B2
:102EC000F1FE074605E000BFFFF7ECFEC01B6428DB
:102ED00023D8D8F80000C005F6D5206A10F4407059
:102EE00021D0A98801F4407181421CD0206A1F4979
:102EF000012220F440700A6000220A602062C007AC
:102F000011D0FFF7CFFE074641F2883808E000BF36
:102F1000FFF7C8FEC11B414502D90320BDE8F88375
:102F2000206A8007F4D5206A696820F4407008435D
:102F300020621EB1E06920F08050E06128788007AF
:102F400005D56068A96820F440400843606028788F
:102F5000C00605D56068E96820F480000843606019
:102F60000020DBE7001002400070004040044242B5
:102F70002DE9F0470F46050061D0434E306800F060
:102F80000700B84209D2306820F0070038433060AB
:102F9000306800F00700B84251D128683B4C8107E7
:102FA00012D5400703D5606840F4E060606028787F
:102FB000000703D5606840F4605060606068A968ED
:102FC00020F0F000084360602878C00728D06868C7
:102FD000012810D02168022810D0890700292EDA94
:102FE000616821F0030101436160FFF75BFE8046E9
:102FF00041F288390DE021688903EFE78901EDE7A7
:10300000FFF750FEA0EB0801494502D90320BDE8B7
:10301000F0876068696800F00C00B0EB810FEFD1B9
:10302000306800F00700B8420BD9306820F0070084
:1030300038433060306800F00700B84201D001200A
:10304000E5E72878400705D56068E96820F4E06086
:10305000084360602878000706D56068296920F475
:10306000605040EAC100606000F038F86168084ACA
:10307000C1F30311515CC840064908600648006866
:10308000FFF730FE0020C2E700200240001002409F
:103090003C59000848000020400000200448054931
:1030A00000684968044AC1F30221515CC840704776
:1030B00048000020001002404C590008044805490F
:1030C00000684968044AC1F3C221515CC840704796
:1030D00048000020001002404C5900080E4A516878
:1030E0000E4801F00C03042B11D0082B0FD10C4813
:1030F000C1F38343C903C05C0AD55168084AC1F3D0
:103100004041921E515C054A5043B0FBF1F07047BC
:1031100004494843704700000010024000127A0042
:103120001A59000800093D002DE9F84F040070D03D
:103130002078C04DC00749D06868C0F381000128DD
:1031400007D06868C0F38100022809D16868C0030D
:1031500006D52868800339D560680028E7D035E0B7
:103160006068B0F5803F0BD010B1B0F5A02F11D042
:10317000286820F480302860286820F4802002E04D
:10318000286840F480302860606890B1FFF78AFDBD
:1031900006460AE0286840F480202860F0E700BF77
:1031A000FFF780FD801B642873D828688003F7D55B
:1031B0000CE0FFF777FD064605E000BFFFF772FD64
:1031C000801B6428F0D828688003F7D420789A4EB2
:1031D00080074FF001094FF0000839D5686810F0FA
:1031E0000C0F07D06868C0F38100022809D1686815
:1031F000C00306D42868800714D52069012808D1A7
:1032000010E02069B0B1C6F80090FFF74BFD07460B
:1032100005E00AE1FFF746FDC01B0228C4D8286874
:103220008007F7D52868616920F0F80040EAC100FE
:1032300028600DE0C6F80080FFF734FD074604E083
:10324000FFF730FDC01B022823D828688007F7D479
:10325000207800072CD57948A169D9B1C0F8009031
:10326000FFF720FD074604E0FFF71CFDC01B022806
:103270000FD8686A8007F7D571484FF4FA51006893
:10328000B0FBF1F0009000BF0098411E0091FAD20F
:103290000EE080E0C0F80080FFF704FD074604E080
:1032A000FFF700FDC01B022875D8686A8007F7D4B5
:1032B0002078400760D5E8690027C00008D4E86995
:1032C00040F08050E861E869012700F080500090EC
:1032D0005C480168C90513D40168834641F48071D4
:1032E0000160FFF7DFFC824606E000BFFFF7DAFC73
:1032F000A0EB0A0064284ED8DBF80000C005F5D525
:10330000E06801280AD008B1052813D0286A20F007
:1033100001002862286A20F0040002E0286A40F0D8
:1033200001002862E06841F2883B98B1FFF7BAFCDF
:1033300082460BE0286A40F004002862EEE700BFF6
:10334000FFF7B0FCA0EB0A0159455AD8286A80075C
:10335000F6D50CE0FFF7A6FC824605E0FFF7A2FCDD
:10336000A0EB0A0159454CD8286A8007F6D41FB152
:10337000E86920F08050E861E06988B36968C1F3CA
:103380008101022944D00228C6F8608004D0FFF7EA
:1033900089FC044638E034E0FFF784FC074604E08B
:1033A000FFF780FCC01B02282BD828688001F7D4C7
:1033B000206AB0F5803F05D16868A16820F400302C
:1033C00008436860D4E908010843696821F474116E
:1033D00008436860C6F86090FFF764FC044606E0A6
:1033E00025E000BFFFF75EFC001B022809D8286813
:1033F0008001F7D51BE000BFFFF754FC001B02283B
:1034000002D90320BDE8F88F28688001F4D40EE0CB
:103410000128F7D06868226A00F48031914204D113
:10342000616A00F47010884201D00120EAE70020B0
:10343000E8E70000001002400000424280044242DF
:10344000480000200070004010B5401EB0F1807FA1
:1034500001D3012010BD4FF0E02460610F216017FF
:1034600001F0F3F90020A06107202061002010BDC9
:1034700070B590F83C20012A26D0012480F83C4009
:10348000022280F83D2003685A689D6822F0700689
:103490000A6832435A600D4B02689A4208D0B2F172
:1034A000804F05D00A4B9A4202D00A4B9A4204D16F
:1034B000496825F080031943916080F83D40002160
:1034C00080F83C10084670BD022070BD002C014001
:1034D000000400400008004010B5040003D094F838
:1034E0003D0010B107E0012010BD002084F83C0031
:1034F000204600F01FF8022084F83D00211D2068BE
:1035000000F0F4FE012084F8460084F83E0084F8C0
:103510003F0084F8400084F8410084F8420084F8B9
:10352000430084F8440084F8450084F83D000020FE
:1035300010BD000008B50068B0F1804F08D1054803
:10354000C16941F00101C161C06900F00100009052
:1035500008BD00000010024090F83D10012901D084
:1035600001207047022180F83D100168CA6842F0CE
:103570000102CA6000680B49884208D0B0F1804F50
:1035800005D00949884202D00849884204D181689F
:1035900001F00701062903D0016841F00101016033
:1035A00000207047002C014000040040000800404B
:1035B00070B5044690F83C000025012817D001267C
:1035C00084F83C60022084F83D002068826822F084
:1035D000770222F47F4282600868502838D00DDCE0
:1035E00020284FD005DC90B3102811D14AE00220EA
:1035F00070BD302846D040280AD13BE060282FD04B
:1036000070280DD0B0F5805F03D0B0F5005F12D008
:10361000012584F83D60002084F83C00284670BDF8
:10362000CB68D1E90121206800F0A9FE20688168FB
:1036300041F0770109E0CB68D1E90121206800F071
:103640009EFE2068816841F480418160E1E719E0D5
:10365000CA684968206800F047FF5021206806E0EA
:10366000CA684968206800F050FF6021206800F0B7
:1036700090FECEE7CA684968206800F035FF402117
:103680002068F4E7226801461046F0E72DE9F04192
:103690000D46040003D094F83D0018B108E0012065
:1036A000BDE8F081002084F83C00204600F040F89E
:1036B000022084F83D002068816844F207029143AB
:1036C0008160211D206800F011FE226890689169D8
:1036D000166A2B68AF69034340F20330814341EA25
:1036E0000721A868EF6908434FF6FC418843E96861
:1036F00040EA0720014328692F6A000140EA0730A9
:10370000084369686D6926F0220646EA05152943D3
:1037100093602268906154F8460B0162012004F81E
:103720001F09E0752076E0762077A0750020B7E7C6
:1037300000B585B0002100910191029103910068CC
:103740000D49884216D10D48C16941F00401C1619B
:10375000C16901F004010491816941F008018161AE
:103760008069694600F008000490C0200090044879
:10377000FFF7A2F905B000BD0008004000100240AC
:10378000000C014070B590F83E60044690F83F5040
:1037900090F8423090F84320022021B104290ED045
:1037A000012E1BD114E0012E18D1012B16D184F863
:1037B0003E0084F8420001220021206820E0012D13
:1037C0000CD1012A0AD184F83F0084F8430014E0A8
:1037D000012D03D1012B01D1012A01D0012070BD9F
:1037E00084F83E0084F83F0084F8420084F84300E7
:1037F00001220021206800F0B5FD0122042120688B
:1038000000F0B0FD2068016841F001010160002076
:1038100070BD000000B585B00021009101910291BA
:1038200003910068B0F1804F11D10A48816941F0DD
:10383000040181618069694600F00400049003205E
:1038400000900220019003900348FFF735F905B07E
:1038500000BD0000001002400008014070B50446A1
:1038600090F83C0000260D4601280FD0012084F876
:103870003C006AB1042A1DD0082A2FD00C2A3FD060
:103880000126002084F83C00304670BD022070BD47
:10389000206800F087FD2068816941F0080181619E
:1038A0002068816921F004018161206881692A69A9
:1038B000114311E0206800F09DFD2068816941F40A
:1038C000006181612068816921F4806181612068E3
:1038D00081692A6941EA02218161D2E7206800F00A
:1038E000B5FD2068C16941F00801C1612068C16966
:1038F00021F00401C1612068C1692A69114311E006
:10390000206800F0CFFD2068C16941F40061C16109
:103910002068C16921F48061C1612068C1692A6998
:1039200041EA0221C161ACE710B5040003D094F86C
:103930003D0010B107E0012010BD002084F83C00DC
:10394000204600F01EF8022084F83D00211D20686A
:1039500000F0CCFC012084F8460084F83E0084F896
:103960003F0084F8400084F8410084F8420084F865
:10397000430084F8440084F8450084F83D000020AA
:1039800010BD704710B50446022249B104290ED07B
:10399000082913D094F84100012816D0012010BD49
:1039A00094F83E000128F9D184F83E200FE094F805
:1039B0003F000128F2D184F83F2008E094F840004D
:1039C0000128EBD184F8402001E084F84120012255
:1039D000206800F0C7FC0F492068884203D1426C80
:1039E00042F4004242642068884208D0B0F1804F1F
:1039F00005D00949884202D00849884204D181682B
:103A000001F00701062903D0016841F001010160BE
:103A1000002010BD002C01400004004000080040C0
:103A200070477047F8B5016804460868CA684B6972
:103A300010F00F0F4FF0000559D003F0010602F40B
:103A40009077374365D0C10705D0D10503D5616CA8
:103A500041F001016164410705D5D90703D0616CCC
:103A600041F002016164810705D5D90703D0616C7B
:103A700041F004016164010707D502F020013143E0
:103A800003D0616C41F008016164616C00293AD097
:103A9000800604D5900602D5204600F077FD206808
:103AA0004069616CC0F38010090700D460B3204600
:103AB00000F045FD20684069400621D5206814309B
:103AC00050E8001F21F0400140E80012002AF5D123
:103AD000E06BA8B16D494163E06BFEF781FF002800
:103AE00011D0E06B416B01B0BDE8F04008478306A0
:103AF0000FD593060DD52046BDE8F84000F046BD31
:103B00002046FFF78EFFF8BD2046FFF78AFF656469
:103B1000F8BD266B2023012E7CD1C6067AD5D606A9
:103B200078D508684868009048694FF0020640065A
:103B300040D5E16B086840680004000CE8D0A28D15
:103B40008242E5D9E085886920282DD020680C3094
:103B500050E8001F21F4807140E80012002AF5D1DE
:103B60002068143050E8001F21F0010140E80012E5
:103B7000002AF5D12068143050E8001F21F04001E0
:103B800040E80012002AF5D184F84230256320680D
:103B90000C3050E8001F21F0100140E80012002A0C
:103BA000F5D1E06BFEF7F8FE6663A08DE18D401A5B
:103BB00081B22AE0A08DE18D401A81B2E08D00280B
:103BC000A6D00029A4D022680C3252E8000F20F4BD
:103BD000907042E80007002FF5D12068143050E8BB
:103BE000002F22F0010240E80027002FF5D184F8D1
:103BF0004230256320680C3050E8002F22F010027C
:103C000040E80023002BF5D166632046FFF708FF4C
:103C1000F8BDFFE705062BD5150629D594F8410018
:103C20002128F5D1A068B0F5805F01D12069B0B13D
:103C3000206A411C2162216800784860E08C401EA7
:103C40000004000CE084E3D12068C16821F0800109
:103C5000C1602068C16841F04001C160D8E7206AB6
:103C60000088C0F308004860206A801C2062E5E7F5
:103C70004006CDD55006CBD5CA68204622F040027A
:103C8000CA6084F8413000F0E7F8C1E72F4500082A
:103C900070B5040004D094F84100002510B106E08E
:103CA000012070BD84F84050204600F023F8242005
:103CB00084F841002068C16821F40051C1602046A9
:103CC00000F0C6FC2068016921F490410161206880
:103CD000416921F02A0141612068C16841F4005125
:103CE000C1606564202084F8410084F84200656367
:103CF000002070BD30B585B000240094019402947A
:103D000003940068184988422CD11848816941F40D
:103D100080418161816901F480410491816941F0B0
:103D2000040181618069124D00F0040004904FF499
:103D300000700090022001900320039069462846FD
:103D4000FEF7BAFE2815CDE900046946284602941C
:103D5000FEF7B2FE002211462520FFF70FF82520BE
:103D6000FEF7FEFF05B030BD0038014000100240F4
:103D70000008014090F84230202B01D0022070470B
:103D800021B11AB10023036300F0BEBC01207047CB
:103D900000680649884207D105490120024648705B
:103DA000891D0448FFF7E6BF704700000038014056
:103DB000000000204C0100202DE9F843044690F853
:103DC0004100984616460D46202802D00220BDE844
:103DD000F88385B17EB100206064212084F8410021
:103DE000FEF760FFA6848146E684A0682027B0F530
:103DF000805F02D003E00120E9E7206910B12E4680
:103E000000250EE000260CE08021204600F097FC03
:103E1000A8B9C6B116F8010B21684860E08C401EB5
:103E2000E084E08C4B464FF00002CDF80080002883
:103E3000EAD14FF04001204600F081FC40B184F807
:103E400041700320C3E735F8020BC0F30800E3E735
:103E500084F841700020BAE77047FEE710B50021F2
:103E60000448FFF78FFDBDE8104004210148FFF72B
:103E700089BD0000BC0000203EB50024114800941C
:103E8000019402940E498460016004730475012555
:103E900005614FF460214460C161FEF78DFB08B1FC
:103EA00072B6FEE70920CDE900056946029405488F
:103EB000FEF700FB002801D072B6FEE73EBD000011
:103EC000002401405C0000203EB500211148009113
:103ED00001910F4A02910260816001730175012412
:103EE0004FF460220461C2614160FEF765FB08B1D6
:103EF00072B6FEE70620CDE900040720029069466D
:103F00000448FEF7D7FA002801D072B6FEE73EBD9E
:103F1000002801408C0000202DE9F04385B00024EA
:103F200029480094019402940394816941F020018E
:103F30008161816901F020010491816941F00401EE
:103F40008161816901F004010491816941F00801F6
:103F500081618069DFF8748000F00800049000221D
:103F600010214046FEF798FEDFF864904FF440477A
:103F7000002239464846FEF78FFE0420009015487F
:103F8000CDE9010469464046FEF796FD1020012563
:103F90000226CDE90005CDE9024669464046FEF716
:103FA0008BFD00970396CDE9015469464846FEF71C
:103FB00083FD002211460820FEF7E0FE0820FEF7F0
:103FC000CFFE05B0BDE8F0830010024000080140BC
:103FD000000C01400000111010B58EB000240794B1
:103FE000089409940A940B941C2168460C94FCF7DD
:103FF000F9F922484FF0804101604721C0E90114DE
:1040000040F2E731C0E903148461FFF765FA08B1B3
:1040100072B6FEE74FF48050079007A91748FFF7E4
:10402000C7FA08B172B6FEE71448FFF77DFC08B185
:1040300072B6FEE70B940BA910480C94FFF718FA20
:1040400008B172B6FEE76020CDE9000402940022B8
:1040500069460A480494FFF701FC08B172B6FEE70E
:10406000042269460548FFF7F9FB08B172B6FEE77E
:104070000248FFF7CFFB0EB010BD0000BC000020CF
:1040800010B58CB024216846FCF7ACF90024164822
:10409000099414490A94C0E900144FF6FF71C0E96D
:1040A0000241046184610320CDE900040120CDE9CF
:1040B00002040494CDE90540079469460A4808942F
:1040C000FFF7E4FA08B172B6FEE7099409A90648B9
:1040D0000A94FFF7CDF9002801D072B6FEE70CB0C4
:1040E00010BD00000008004004010020FEE70000B1
:1040F00070B5094D0446012291032846FEF7CCFD18
:104100000122D1032846FEF7C7FD044800210268BA
:1041100051630068846370BD000C0140BC00002046
:1041200070B5094D0446012291032846FEF7B4FDFF
:104130000122D1032846FEF7AFFD044801684C6315
:1041400000680021816370BD000C0140BC000020AC
:1041500003480021026851630068816370470000D2
:10416000BC0000200848017808480229008805D0D2
:10417000032905D0042905D1FFF7EABFFFF7D0BF17
:10418000FFF7B6BF70470000070000200A000020BC
:10419000FEE72DE9F0411D460B4604461146184640
:1041A00001F09CFA0646E0603146206801F098F97B
:1041B00080462946304601F093F9616900F0DAFF44
:1041C0006061A16901F058FAA06908D380F000404D
:1041D000616901F051FA03D2A06980F0004060618A
:1041E0006169606801F07CF9D4E9036107463046F3
:1041F00001F074FAA16801F073F9294601F02EF874
:10420000054639464046266100F0B4FF294600F0D5
:10421000B1FF0546E16901F02FFA01D2E56909E035
:10422000E069294680F0004001F026FA02D2E069F8
:1042300080F000452846BDE8F08110B5044602989C
:10424000E06184E80E004FF0FF3101F021FBA06136
:104250000020E0622046BDE81040AFF3008000215E
:10426000C16001614161704770477047FEF720BD32
:1042700030B593B028216846FCF7B4F814210AA899
:10428000FCF7B0F8002501200F9510951195010459
:1042900012958DE8230004904FF4E010CDE908104A
:1042A000022407946846FEF73FFF08B172B6FEE7A6
:1042B0000AA90F2081E831004FF48060CDE90D0597
:1042C00002210AA8FEF754FE08B172B6FEE74FF4C9
:1042D000004011900F940FA8FEF7D4FD002801D0E4
:1042E00072B6FEE713B030BD70470000F0B502684B
:1042F000194B1A4C1A4D4FF08047984205D0B842DE
:1043000003D0A04201D0A84203D122F070064A682F
:104310003243984205D0B84203D0A04201D0A8420F
:1043200003D122F44074CA6822434C6922F080020F
:10433000224302608A68C2620A688262984201D19E
:1043400009690163012141610169C90703D001695C
:1043500021F001010161F0BD002C0140000400408A
:104360000008004010B501F01F030121046A9940C4
:104370008C430462016A9A401143016210BD10B57A
:10438000846842EA032224F47F440A432243826081
:1043900010BD826822F070020A4342F0070181607A
:1043A0007047000030B5036A026A22F0010202621F
:1043B0004268846924F073050C682C4323F00205DD
:1043C0008B682B430A4DA8420BD123F00805CB681C
:1043D00022F440722B434D6923F0040315438A698C
:1043E0002A434260846149684163036230BD000032
:1043F000002C014030B5026A036A23F01003036207
:10440000436884690D6824F4E64444EA05248D6811
:1044100022F0200242EA05120B4DA8420ED1CD68CF
:1044200022F0800242EA05124D6923F4406343EA18
:1044300085038D6922F0400243EA8503436084616D
:1044400049688163026230BD002C014030B5036AC7
:10445000026A22F4807202624268C46923F4007323
:1044600024F073050C682C438D6843EA05230C4D3A
:10447000A8420ED1CD6823F4006343EA05234D69B9
:1044800022F4405242EA05128D6923F4806342EA25
:1044900005124260C4614968C163036230BD000017
:1044A000002C014030B5046A026A22F48052026294
:1044B0004268C3690D6823F4E64343EA05238D6827
:1044C00024F4005444EA0534064DA84204D14D6951
:1044D00022F4804242EA85124260C3614968016465
:1044E000046230BD002C014010B5036A046A24F058
:1044F00001040462846924F0F00444EA021423F005
:104500000A020A438461026210BD10B5036A046A9C
:1045100024F010040462846923F0A00324F470449E
:1045200044EA023243EA01118261016210BD10B512
:10453000406A0021C185C184FFF773FA10BD01688C
:104540000C3151E8002F22F4907241E80023002B37
:10455000F5D10168143151E8002F22F0010241E841
:104560000023002BF5D1016B012909D101680C3121
:1045700051E8002F22F0100241E80023002BF5D172
:10458000202180F8421000210163704708B590F89F
:104590004210222901D0022008BD82684FF48053C6
:1045A0009A4201D1016921B1816A9A421BD04AB174
:1045B0000AE00268816A5268C2F308020A80816ACE
:1045C000891C08E0026972B10268526802F07F0239
:1045D0000A70816A491C8162C18D491E0904090C57
:1045E000C18503D01BE002685268F1E70168CA6820
:1045F00022F02002CA600168CA6822F48072CA6090
:1046000001684A6922F001024A61202180F84210C3
:1046100000214163026B012A03D0FFF7B9FB0020A0
:1046200008BD016301680C3151E8002F22F010022F
:1046300041E80023002BF5D101680A68D20602D5B3
:104640000A6849680091818DFFF7EAF9E7E7000001
:1046500070B5044600680169E26821F440511143D5
:1046600001612169A0680843616908432168CA683B
:1046700041F20C639A430243CA6020684169A2690F
:1046800021F44071114341611E492068884202D1E2
:10469000FEF714FD01E0FEF701FD00EBC00101EBA8
:1046A0000012606864218000B2FBF0F3B3FBF1F309
:1046B0006FF018067343B2FBF0F5B2FBF0F605EBB2
:1046C0008305322303EB0515B5FBF1F5B6FBF1F6D7
:1046D00005F0F00505EB0615B2FBF0F6B2FBF0F0C5
:1046E000B0FBF1F06FF01802504306EB800003EBD3
:1046F0000010B0FBF1F0216800F00F002844886042
:1047000070BD00000038014081628285C2850021B1
:104710004164222180F84210016921B10168CA6810
:1047200042F48072CA6001684A6942F001024A613B
:104730000068C16841F02001C160002070472DE988
:10474000F843984617460D460446089E24E0701C20
:1047500022D0FEF7A7FAA0EB0800B0421AD8CEB1DB
:104760002068C168490717D5802D15D0402D13D07A
:104770000168C94309070FD401680025406800900B
:104780002046FFF7DCFE0820606484F840500120DA
:10479000BDE8F8830320FBE72068006835EA0000E5
:1047A00004D00020B842D2D00020F1E70120F9E780
:1047B0000148FFF737B900004C01002070B5174CD5
:1047C000E0790025022815D0E07903281AD00720C7
:1047D000FDF7F8FDFDF71AFE20620620FDF7F2FD59
:1047E000FDF714FE01466062206A00F045FF11D219
:1047F000206A10E00720FDF7E5FDFDF707FEC4E99C
:10480000080508E00620FDF7DDFDFDF7FFFDC4E922
:10481000085000E0606AA06270BD00000000002047
:10482000FEE7490050EAC12018BF04204A0D18BF16
:1048300040F0010040F2FF72B2EB515F08BF40F060
:104840000200012808BF052070470907090E00284B
:1048500004DB00F1E02080F80014704700F00F0046
:1048600000F1E02080F8141D704740F20132002072
:104870004FF0E04100F0DEBF024A0020110700F0D7
:10488000D9BF000001FDFFFF10B50446D1E90001CA
:1048900000F002F8206010BDF8B504460D466A46E7
:1048A00000F080F800987E30009000281EDC002286
:1048B00013462046294600F001FB17D0002140F6A0
:1048C00008004FF0000006462046294600F0B0FAE6
:1048D000044640F6080006EA00014FF0000034F0FC
:1048E000004004BF0220FBF7ACFD29E00098FF2840
:1048F00028DB002108464FF0000000F440060022AB
:1049000013462046294600F0D3FB8CBF0025012525
:104910000220FBF796FD4FF0FF4446B1002D0CBF7F
:104920004FF400004FF48000B04218BF084C04213F
:1049300008464FF00000002D04BF84F00040F8BD91
:104940002046F8BD20462946BDE8F84000F070BA80
:10495000FFFF7F7F10B504460A46D4E900031946DD
:1049600000F0A4F8C4E9000110BD30380A2801D2D3
:10497000012070470020704730B583B00446FBF734
:104980005BFD05460020CDE9000002462146684651
:10499000FCF7B4FA2846FBF754FDDDE9000103B04B
:1049A00030BD000010B5144600222260114A21F0EB
:1049B00000439342A8BF10BD53EA000208BF10BDD8
:1049C000B3F5801FA8BF226807DA362200F032FF55
:1049D0006FF0350221F000432260DFF81CC06FF356
:1049E0001E510CEB23531A4441F0FF5141F000518A
:1049F000226010BD0000F07F02FCFFFF70B501785F
:104A000000252748274C6C2939D013DC4FF00100D2
:104A1000662905D006DC502923D0562919D12070EB
:104A2000022015E0672918D0682912D1E560A0702E
:104A3000E57014E004226D2915D0722907D073297E
:104A400008D07A2905D1BDE87040FDF70FBD0320DD
:104A5000E07170BDE271A57070BDE07025722071CB
:104A600070BD607170BD2571A570E27100221021CA
:104A7000FEF712F90C4845610561657170BD4FF490
:104A80004045002229460446FEF706F90A20FDF7B4
:104A9000F3FF29462046BDE870400122FEF7FCB82E
:104AA0000008014000000020EC0100202DE9F04149
:104AB00006460C4640F2FF75174635EA14502BD0D7
:104AC00000221346304600F0F9F925D03A46304628
:104AD000214600F0AFFE06460C4635EA145010D0D1
:104AE00000221346304600F0E9F915D10220FBF709
:104AF000A8FCFFF7C1FE0A46214662F31E01BDE88D
:104B0000F0810220FBF79DFCFFF7AFFE0A4621462D
:104B100062F31E01BDE8F08130462146BDE8F08118
:104B20000EB5FEF7CDF8FFF7A3FBFFF7F5F9FFF79A
:104B300053FAFFF7A1F999489749002501604FF40E
:104B40001651C0E901150C21C560C0E90451856109
:104B5000C561FFF79DF808B172B6FEE7FFF790FA5E
:104B6000FFF7B2F9FFF77AF98C484838FDF772FC85
:104B70008A4E8B48A036009096E80E003046FFF72C
:104B80005CFB012287498548FFF7F4F83C21A6F138
:104B9000E800FEF7F7FDA6F1E800FEF7DDFCDFF820
:104BA0000482DFF8049208F12E080127A6F1430BD6
:104BB0004FF4000AA8F13404607858B36570E078C7
:104BC000B8B1A0790A2807D00D2805D0217A082984
:104BD00020D208F801001BE0217A724808F8015041
:104BE0002E30FFF7C9FE00F023F9E060E570A770F2
:104BF00079E0207801285CD0607958B1A0790A2842
:104C00005BD00D2859D0217A282903D20BF8010056
:104C1000491C21726348FFF7F1FEFDF733FCFFF7F3
:104C2000A1FAFDF711FCB062FEF73CF8E169401A09
:104C3000142873D3FFF7C2FDFEF734F8E061A078C3
:104C400000286BD02079002868D001221021574815
:104C5000FEF722F8B06A00900146E06800F03EFDE1
:104C60000290F16A009800F039FD494600F0F6FA2A
:104C700020630098F062029800F050FA21F00041A1
:104C800000F0D6F80190716A606900F0F5FB04D27B
:104C9000D4E9050100F06EFA60610121019800F08D
:104CA000F7FD01460090606900F0E6FB21D26169E2
:104CB00020E0A07960812570ACE7217A394A331D64
:104CC0000BF801503549921DC431A1F11C00CDE90A
:104CD00000020291A0F1080235A14B38FBF764FBFA
:104CE0006571A77027712D482572A030FFF7B7FABC
:104CF00090E700990298504501DA81F00041274879
:104D00004B46A030226BFFF744FAE062029951450E
:104D100005DB0221E17100F063FB08E01FE00321E5
:104D2000E17100F0FBF921F0004100F003F960812E
:104D3000B16AE06800F0D2FC00F0F0F921F0004127
:104D40004FF02042204B00F023F908D2A570042038
:104D5000E07112486581A0306561FFF780FAFDF7C8
:104D6000A1FF2169401A6428FFF426AFB06A00F061
:104D7000D5F9CDE900010948628914A14830FBF753
:104D800039FA064982B2152348310448FFF714F86E
:104D9000FDF788FF20610FE7003801404C0100203B
:104DA00000007A44060000200AD7A33C0008014016
:104DB000256620492025662044202566205320258D
:104DC00066204D20256600009999B93F562564203C
:104DD00045252E32660A000010B500290AD0087851
:104DE000002807D005487844FCF7E4FD002801D0EE
:104DF000002010BD0248784410BD0000320C0000B5
:104E00002A0C000010B500290AD00878002807D025
:104E100005487844FCF7CEFD002801D0002010BDE5
:104E20000248784410BD0000220C00001A0C00005B
:104E300021F00042A2F16052B2F5801F01F0004360
:104E400028BFD2F17F6C0BD95FEA001C43EAC20293
:104E500042EB507018BF704728BF20F00100704728
:104E6000B2F5801FBCBF184670474FEA410C1CF5D5
:104E7000001F02D2084600F0FABB70B500F0C4F87B
:104E800000000089FFF7F6BF4FF00040A0F580005A
:104E90007047000002494FF0000000F099BC00BFCD
:104EA0000000F87F491058BFC1F140415B1058BF66
:104EB000C3F140438B42EFF30080704751EA030C8B
:104EC00017D41CF5801F58BFBCF5801F00F1068069
:104ED000994218BF704708BF9042704707D711F535
:104EE000801F58BF13F5801F19D49942704789421B
:104EF00070471CF5801F08D5BCF5801FF7D58B4285
:104F000018BF704708BF824270474FF4001C1CEB6B
:104F1000410F38BF1CEB430F01D28B42704770B575
:104F200000F072F8922449004FF000514FF0805386
:104F3000FFF7B8BF4FEA1153A3F58063D3F11E0307
:104F4000A8BFD3F1200C08DB4FF0004242EAC12297
:104F500052EA505232FA03F0704709420BD4102B38
:104F6000C4BF0020704703F5787CBCF1FF3F05D03B
:104F70004FF0FF3070474FF00000704770B500F001
:104F800043F800BF4992248000207047F0E70000FA
:104F900051EA030C17D41CF5801F58BFBCF5801FC5
:104FA00000F10680994218BF704708BF90427047D1
:104FB00007D711F5801F58BF13F5801F19D49942E8
:104FC0007047894270471CF5801F08D5BCF5801FCB
:104FD000F7D58B4218BF704708BF824270474FF425
:104FE000001C1CEB410F38BF1CEB430F01D28B425E
:104FF000704770B500F008F8922449004FF0005156
:105000004FF08053FFF74EBF0EF1020E2EF0030E4D
:105010005EF8046B364205D4012A43EB030515F50F
:10502000001F12D8012841EB010C1CF5001F0CD801
:105030000ED14FEAD17C15F5001F0CEB4C0C0CF196
:10504000020C08BF4CEBD37C04E04FF0080C01E0ED
:105050004FEAD37C0CEB4C0526FA05F606F0070662
:10506000B6F1040C06D20EEB860CBDE870404CF095
:10507000010C6047DFE80CF0090B02024FF0004121
:105080004FF00000A1F5002170BD1946104601281F
:1050900051EB010418BFD4F5001484BF002001F0C7
:1050A000004170BD0808A0F500114FEA31017047BA
:1050B00053EA010C17D41CF5801F58BFBCF5801FA4
:1050C00000F106808B4218BF704708BF82427047CC
:1050D00007D713F5801F58BF11F5801F19D48B42D5
:1050E00070479B4270471CF5801F08D5BCF5801F98
:1050F000F7D5994218BF704708BF904270474FF4E8
:10510000001C1CEB430F38BF1CEB410F01D299422E
:1051100070470FB40CBC03BCFFF76BBF43004FEAF2
:10512000D30C4FEA3C0C43401FBF40070CF16051C9
:1051300013F0FE4F70471CF0006F03D100200CF0FD
:10514000004170470CF0004343EA507010B540EA4C
:10515000CC0000F046FA00BF000000924FEA0001C8
:10516000FFF7A0BF4FF000414FF00000A1F5002174
:105170007047000090EA010F48BF81F0004100F144
:10518000B482421A3CBF801A89184FEAD0524FF0BD
:105190007F4C1CEA410FA2EBD15318BF9CEA026F6F
:1051A00000F03B804FF0004C4CEA00204CEA01211B
:1051B00021FA03FC10EB0C0C1ED202F1FF325FEA65
:1051C0001C2040EBC25038BF70471CF07F0F4FEAE5
:1051D000400C18BFBCF17F4F38BF7047C3F12003AC
:1051E000994008BF20F00100BCF17F4F38BF7047E5
:1051F000A0F1C04000F03BBA4FEA3C00000A40EB8F
:10520000C25028BF1CF0FF0F4FEA400CE6D018BF79
:10521000BCF17F4F38BF7047EAE79CEA026F05D0C8
:1052200010EA5C0F08BF00F00040704710B500F0B6
:10523000D8F900BF64FBBE3E014800F0C9BA00BF08
:105240000000C07F401058BFC0F14040491058BF17
:10525000C1F140418142EFF3008070474FF47F0C71
:105260001CEAD0121EBF1CEAD11392EA0C0F93EA7B
:105270000C0F00F0858090EA010F48BF42F4807265
:1052800040F4000C41F400002CF07F4120F07F40FE
:1052900000B58142A2EB03020FF2081CACEB504EAA
:1052A000C0F100009EF800E04FEA4E0E00FB0EFC3D
:1052B00038BF49004FEA2C1C02F5FA020CFB0EF332
:1052C0004FEACE1E4FEA112C4FEAC1210EEB635E6E
:1052D00042EB22420EFB0CFC4FEA1C5300FB031175
:1052E0004FEA112C4FEA01310EFB0CFC4FEADC4C6B
:1052F00000FB0C11C14228BF09184CEB03335DF8C9
:1053000004EB10EB410143EBC250B2F57C0F38BF08
:10531000704729D512F0F00F1CBF00F1C04000F01B
:1053200000407047008182838485868788898B8CC2
:105330008D8E8F919293959697999A9C9D9FA0A2FE
:10534000A3A5A7A8AAACAEB0B2B3B5B7B9BCBEC04E
:10535000C2C5C7C9CCCED1D4D7D9DCDFE2E6E9ECEF
:10536000F0F3F7FAFE0000004FEA400C0CF1807CED
:10537000BCF17E4F28BF7047B0F1C04000F077B954
:1053800090EA010F0CEAD11348BF42F480726245E3
:1053900038BF634507D213F47F0F16D080EA0100AF
:1053A00000F00040704710B500F01BF9097EFC3E8C
:1053B00000F005B880EA010000F00040704780EA84
:1053C000010000F0004000F052B912F47F0F04BF5A
:1053D0000248704780EA010000F049B90000C07F30
:1053E000C10DD1F19E0206DB4FEA002343F00043DA
:1053F00023FA02F07047004207D54FEA4001B1F1AD
:10540000FE4F02D24FF00000704710B500F0E9F8EF
:1054100049922480002070476FEA20007047000006
:1054200010F0004148BF4042B0FA80F310FA03F296
:10543000C3F19D030BD051EAC35101EB1220530677
:1054400038BF704700F1010008BF20F0010070472D
:10545000B0FA80F310FA03F2C3F19D030AD0D90524
:1054600001EB1220530638BF704700F1010008BF5E
:1054700020F001007047000050EA010C00F1138099
:105480001CF5000F58BFBCF5000F01D488427047CF
:1054900007D710F5000F58BF11F5000F15D488423B
:1054A0007047894270471CF5000F04D5BCF5000F0A
:1054B000F7D5814270474FF0807C1CEB400F38BF1E
:1054C0001CEB410F01D28142704710B500F089F802
:1054D000922449004FF000504FF08051FFF7B2BEC8
:1054E0004FF47F0C1CEAD0121EBF1CEAD11392EAC3
:1054F0000C0F93EA0C0F00F0478090EA010F48BFB1
:1055000042F480724FF0004C4CEA00204CEA01213A
:1055100002EB0302A0FB0113A2F50002002918BF51
:1055200043F001035B0028BF4FEA330342EB224202
:105530005FEA132C4CEBC2502EBFBCEB436FB2F5AD
:105540007C0F70474FEA036CBCF1004F08BF20F09E
:105550000100B2F57C0F38BF70470BD582F0FF0217
:1055600012F5803FC8BF704700F1C040D8BF00F0BF
:105570000040704700F5000C5FEA4C0C48BF7047D4
:10558000B0F1C04000F073B890EA010F0CEAD113FB
:1055900048BF42F48072624538BF634504D280EA56
:1055A000010000F00040704710B500F01AF800BF8D
:1055B0008900013E00F007B800F009B85FEA410C2D
:1055C0005FEA1C6C08D080EA010000F050B85FEA86
:1055D000400C5FEA1C6CF6D14FF00040A0F5800053
:1055E00070470EF1020E2EF0030E5EF8044B2442BB
:1055F00004D44FEA4102B2F17F4F11D84FEA400381
:10560000B3F17F4F0CD80ED14FEAD07CB2F17F4F6F
:105610000CEB4C0C0CF1020C08BF4CEBD17C04E001
:105620004FF0080C01E04FEAD17C0CEB4C0324FA5C
:1056300003F404F00704B4F1040C06D20EEB840C5E
:10564000BDE810404CF0010C6047DFE80CF00708A3
:1056500002024FF00040A0F5800010BD0846420055
:1056600018BFD2F1807288BF00F0004010BDFF214A
:1056700041EAD050C005704751EA000C00F1138098
:105680001CF5000F58BFBCF5000F01D481427047D4
:1056900007D711F5000F58BF10F5000F15D4814240
:1056A0007047894270471CF5000F04D5BCF5000F08
:1056B000F7D5884270474FF0807C1CEB410F38BF14
:1056C0001CEB400F01D28842704780EA010081EA5A
:1056D000000180EA0100FFF7F8BE000090EA010F28
:1056E00048BF81F000413FF54CAD421A04D882F02A
:1056F0000042A0EB020011444FEAD0524FF07F4C21
:105700001CEA410FA2EBD15318BF9CEA026F4AD0AA
:105710004FF0004C4CEA00204CEA012121FA03FC36
:10572000B0EB0C0C0FD412F0FE0F36D05FEA4C0039
:105730001DD5001240EBC25038BF70471CF03F0F20
:1057400018BF70470BE0A2F101025FEA1C2040EB9A
:10575000C25038BF70471CF07F0F18BF7047C3F1AD
:105760002003994014BF401E20F0010070478008BC
:105770004FEA122308BF7047B0FA80FCA2EB0C027C
:10578000CCF1280C60FA0CF093EA122F04BF00EB66
:10579000C25070474FEAC3707047130A5FEADC10CB
:1057A00008BF7047F6E79CEA026F04D010EA5C0F6E
:1057B00008BF0020704710B5FFF713FF40DFF63E2B
:1057C00081F0004070474FF000007047FAF771BF5A
:1057D0000CF00F03092B08BF082000F085800A2B6E
:1057E0000BD0082B18BF704708BF1CF0400F0AD021
:1057F0004FF000004FF0000170471CF0400F18BF41
:105800004FF0004070471CF0100F08D020F070439C
:1058100000F07F4242EAD3014FEA4370704700F044
:10582000604021F07F4242EA000201F07F4040EAFE
:10583000727070474FF0FF0C4CF4E06C1CEA11538F
:105840001CBF9CEA030C9445C2BFDA4201EB025133
:105850007047002B0DD0BCF1000F0FD0002A01F0D3
:105860000041A4BF41F0E04141F07F614FF00000F2
:10587000704701F000414FF00000704750EA0133DB
:105880004FF09B0C18BF4CF0806C7FF403AB70475B
:105890004FF0FF0212EAD0521CBF92F0FF038B427E
:1058A000C2BFD14200EBC1507047002A0AD0002B82
:1058B0000BD0002900F00040A4BF40F0FE4040F4AF
:1058C0000000704700F00040704743024FF00B0C9F
:1058D00018BF4CF0806C7FF4AFAC7047FBF764B935
:1058E000FBF734BEFBF7C2BF1CF4801F11D01CF4C1
:1058F000E02F03D06FEACC31490070474FF04050A1
:10590000EFF3008222F0704242EA000282F3008844
:1059100070474FF0000070470102020304050607BC
:1059200008090A0B0C0D0E0F1010010202030405EA
:10593000060708090A0B0C0D0E0F101000000000DE
:10594000000000000102030406070809000000002F
:105950000102030402400000000000A0000000005B
:1059600005400000000000C8000000000C400000DE
:105970000000409C00000000194000000020BCBE58
:105980000000000034400000BFC91B8E000000046E
:10599000B5400000504BCFD06607E2CF01000000B9
:1059A0006C4100003E8251AADFEEA73401000000E6
:1059B000D9420000DCB5A0E23A301F97FFFFFFFF9D
:1059C000B4450000FD25A0C8E9A3C14FFFFFFFFFBC
:1059D000FF3F00000000008000000000FF3F0000CB
:1059E0000000008000000000445B00080000002070
:1059F0005C00000028010008A05B00085C0000209B
:105A00002408000044010008000000000000F07FAE
:105A1000FFFFFFFFFFFFEF7F1C00000043000000BF
:105A2000F8FFFFFF0C0000000E0000000F00000058
:105A30002E0000001001000043000000F8FFFFFFEF
:105A40000040404040404040404041414141414091
:105A50004040404040404040404040404040404046
:105A600040050202020202020202020202020202D5
:105A700002202020202020202020200202020202DA
:105A80000202909090909090101010101010101032
:105A9000101010101010101010101010020202023E
:105AA0000202888888888888080808080808080882
:105AB000080808080808080808080808020202027E
:105AC0004000000000000000000000000000000096
:105AD00000000000000000000000000000000000C6
