:020000040800F2
:10000000F806002089010008F1150008B512000863
:1000100071140008E70200085918000800000000E9
:10002000000000000000000000000000F5150008BE
:10003000E902000800000000F3150008F7150008A9
:10004000A3010008A3010008A3010008A301000800
:10005000A3010008A3010008A3010008A3010008F0
:1000600009030008A3010008A3010008A301000878
:10007000A3010008A3010008A3010008A3010008D0
:10008000A3010008A3010008A3010008A3010008C0
:10009000A3010008A3010008A3010008A3010008B0
:1000A000A3010008A3010008A3010008A3010008A0
:1000B00075160008A3010008A3010008A3010008A9
:1000C000A3010008A3010008A3010008A301000880
:1000D000A3010008A3010008A3010008A301000870
:1000E000EB020008A3010008A301000800F002F8D9
:1000F00000F03AF80AA090E8000C82448344AAF188
:100100000107DA4501D100F02FF8AFF2090EBAE885
:100110000F0013F0010F18BFFB1A43F0010318473B
:10012000A0170000C0170000103A24BF78C878C19B
:10013000FAD8520724BF30C830C144BF04680C60ED
:10014000704700000023002400250026103A28BF35
:1001500078C1FBD8520728BF30C148BF0B60704739
:100160001FB51FBD10B510BD00F058F81146FFF7C0
:10017000F7FF01F082FB00F076F803B4FFF7F2FF1F
:1001800003BC00F07DF8000009488047094800479B
:10019000FEE7FEE7FEE7FEE7FEE7FEE7FEE7FEE737
:1001A000FEE7FEE704480549054A064B7047000094
:1001B00073160008ED000008F8000020F806002083
:1001C000F8020020F80200204FF0000200B51346AC
:1001D00094469646203922BFA0E80C50A0E80C5067
:1001E000B1F12001BFF4F7AF090728BFA0E80C5018
:1001F00048BF0CC05DF804EB890028BF40F8042B11
:1002000008BF704748BF20F8022B11F0804F18BF7D
:1002100000F8012B7047704770477047754600F033
:100220002BF8AE4605006946534620F00700854688
:1002300018B020B5FFF7B6FFBDE820404FF000062C
:100240004FF000074FF000084FF0000B21F00701BE
:10025000AC46ACE8C009ACE8C009ACE8C009ACE801
:10026000C0098D46704710B50446AFF300802046A4
:10027000BDE81040FFF781BF0048704794000020A0
:1002800001491820ABBEFEE72600020070470000BF
:1002900070B5044600688168C943C90717D18168F1
:1002A00021F00101816000F09BFA05460AE000BFE1
:1002B00000F096FA401B022804D920688068C043E9
:1002C000C00706D020688068C043C007F0D0002077
:1002D00070BDA06A40F01000A062E06A40F001002A
:1002E000E062012070BDFEE7704710B54FF400508A
:1002F00000F070F94FF4804000F06CF9BDE8104058
:100300004FF4004000F066B9042000F063B900002B
:10031000F8B50024009490F824202546012A12D034
:10032000012280F824204A681F23072A0DD206687C
:10033000776B521E02EB820293409F430B689340FF
:100340001F43776319E00220F8BD06680D2A0AD220
:10035000376BD21F02EB820293409F430B6893409E
:100360001F43376309E0F76A0D3A02EB82029340BC
:100370009F430B6893401F43F7620A680723066890
:100380000A2A0AD3F7680A3A02EB420293409F43D3
:100390008B6893401F43F76008E0376902EB420225
:1003A00093409F438B6893401F4337610A68102A2C
:1003B00001D0112A20D1124B02689A4217D19368BA
:1003C0001B0219D4936843F4000393600968102951
:1003D00012D10C490C4A0968B1FBF2F101EB810121
:1003E000490000E0491E00910029FBD104E0816A28
:1003F00041F020018162012480F824502046F8BD9C
:10040000002401401400002040420F002DE9F0417B
:100410004FF0000704003D467ED0A06A002628B9B0
:10042000E66284F82460204600F07EF82046FFF75C
:100430002FFFA16AC90600D420B1A06A40F01000C5
:10044000A06269E0A16A21F4885141F00201A16231
:100450006268E169237B0A4347EA43010A43A168D2
:100460004FF48077B94209D0012907D05FF000012D
:1004700094F814C0BCF1010F02D00AE03946F7E746
:10048000F3B1A36A43F02003A362E36A43F00103DC
:10049000E3622368D3F804C02CF4694C4CEA010CE5
:1004A000C3F804C021688B68DFF870C003EA0C034E
:1004B00013438B60A168B9420BD0012909D00CE02D
:1004C000DFF85CC0A3690CEB43330B4343F40061DA
:1004D000DFE7218A0D05A5F580152168CB6A23F495
:1004E00070032B43CB62216889680E4B19409142FF
:1004F00008D1E662A16A21F0020141F00101A16286
:10050000BDE8F081A06A20F0020040F01000A06277
:10051000E06A40F00100E0620120F1E7FDF7E1FF51
:1005200000E0FFFFFE0E1FFF00B585B00021009127
:1005300001910291039100680E49884218D10E483A
:10054000816941F400718161816901F40071049154
:10055000816941F0080181618069694600F0080005
:1005600004900220009003200190044800F03EF81F
:1005700005B000BD0024014000100240000C014005
:1005800070B5044600F02CF90546601C02D0044802
:100590000078044400F024F9401BA042FAD370BD57
:1005A000080000200A4904280AD0B0F5005F09D0ED
:1005B000B0F5804F09D0B0F5004F05D1042002E01E
:1005C000012000E00220087070470320FBE70000D4
:1005D00004000020044910B50A68024202D00860F5
:1005E000FFF7E0FF10BD0000140401402DE9F84FB3
:1005F000DFF8B8910024A9F1040B23460F2709F175
:10060000040AABF1040EC9E00125A5402A40AA4224
:100610007DD1674ED1F804C0ACEB0608B44532D0AA
:1006200014DCBCF1030F3AD009DCBCF1000F2AD076
:10063000BCF1010F1CD0BCF1020F31D11DE0BCF1A7
:10064000110F17D0BCF1120F2AD119E0B8F5881F8D
:1006500019D006DCB8F5803F15D0B8F5801F1FD142
:1006600011E0B8F5001F0ED0B8F5041F18D10AE04C
:10067000CB6815E0CB681B1D12E0CB6808330FE098
:10068000CB680C330CE08B682BB1012B4FF00803C7
:1006900003D0456104E0042302E0056100E000238B
:1006A000FF2A01D8064601E000F104064FEA84055E
:1006B00001D9A5F12005D6F8008007FA05FC28EA43
:1006C0000C0803FA05F548EA0508C6F800804D68ED
:1006D000ED0062D5374DAE6946F00106AE61AD69F9
:1006E00024F0030605F001050095334D06EB050CDB
:1006F000DCF80850A607360F07FA06F825EA0805C1
:10070000DFF8B880404503D14FF0000817E044E01F
:10071000DFF8AC80404502D14FF001080FE0DFF870
:10072000A480404502D14FF0020808E0DFF898802D
:10073000404502D14FF0030801E04FF0040808FAE9
:1007400006F848EA0508CCF808804D68D9F800603A
:10075000ED024D4601D5164300E096432E604D68EC
:10076000DAF80060AD02554601D5164300E0964325
:100770002E604D68DBF80060AD035D4601D5164381
:1007800000E096432E604D68DEF80060ED0375468C
:1007900001D5164300E096432E60641C0D682A467E
:1007A000E5407FF431AFBDE8F88F00000804014058
:1007B000000011100010024000000140000801403C
:1007C000000C014000100140001401408068084006
:1007D00000D0012070470AB1016170470904FBE7AE
:1007E00001488068704700000800002002488168C6
:1007F000027811448160704708000020074810B556
:10080000016841F010010160032000F075F80F202D
:1008100000F006F800F024F8002010BD002002408F
:1008200070B50D4D04464FF47A712878B1FBF0F0A5
:100830000A490968B1FBF0F000F032FB48B9102C0E
:1008400007D200222146501E00F036F800206C60CE
:1008500070BD012070BD00000800002014000020C1
:100860000C4808B5816941F001018161816901F09D
:1008700001010091C16941F08051C161C06900F07E
:10088000805000900448416821F0E06141F000711F
:10089000416008BD0010024000000140002809DB53
:1008A00000F01F02012191404009800000F1E0208A
:1008B000C0F8001170470000F0B40E4B1B680C46E6
:1008C000C3F30223C3F10705042D00D90425191D24
:1008D000072901D2002300E0DB1E012606FA05F1FC
:1008E000491E214099409E40761E16403143F0BC7F
:1008F00000F0B3BF0CED00E0064900F00702086805
:100900004FF6FF03184040EA0220034A10430860F4
:10091000704700000CED00E00000FA052DE9F843F7
:1009200005460078354CC00754D0E0690026C00069
:1009300008D4E06940F08050E061E069012600F0F1
:10094000805000902E480168C90512D40168804685
:1009500041F480710160FFF743FF074605E000BFE7
:10096000FFF73EFFC01B642823D8D8F80000C0055D
:10097000F6D5206A10F4407021D0A98801F44071A6
:1009800081421CD0206A1F49012220F440700A6075
:1009900000220A602062C00711D0FFF721FF07463E
:1009A00041F2883808E000BFFFF71AFFC11B41453C
:1009B00002D90320BDE8F883206A8007F4D5206AB5
:1009C000696820F44070084320621EB1E06920F09D
:1009D0008050E0612878800705D56068A96820F418
:1009E0004040084360602878C00605D56068E96823
:1009F00020F48000084360600020DBE70010024024
:100A000000700040400442422DE9F0470F460500C7
:100A100061D0434E306800F00700B84209D2306818
:100A200020F0070038433060306800F00700B8421B
:100A300051D128683B4C810712D5400703D5606827
:100A400040F4E06060602878000703D5606840F4F7
:100A5000605060606068A96820F0F0000843606042
:100A60002878C00728D06868012810D0216802289B
:100A700010D0890700292EDA616821F003010143B3
:100A80006160FFF7ADFE804641F288390DE02168D4
:100A90008903EFE78901EDE7FFF7A2FEA0EB08016C
:100AA000494502D90320BDE8F0876068696800F015
:100AB0000C00B0EB810FEFD1306800F00700B842B6
:100AC0000BD9306820F0070038433060306800F000
:100AD0000700B84201D00120E5E72878400705D596
:100AE0006068E96820F4E0600843606028780007E7
:100AF00006D56068296920F4605040EAC100606052
:100B000000F018F86168084AC1F30311515CC8404D
:100B10000649086006480068FFF782FE0020C2E729
:100B20000020024000100240AE180008140000200F
:100B30000C0000200E4A51680E4801F00C03042BF3
:100B400011D0082B0FD10C48C1F38343C903C05CFB
:100B50000AD55168084AC1F34041921E515C054ACA
:100B60005043B0FBF1F07047044948437047000020
:100B70000010024000127A009E18000800093D0093
:100B80002DE9F84F040070D02078C04DC00749D03F
:100B90006868C0F38100012807D06868C0F381004D
:100BA000022809D16868C00306D52868800339D5B2
:100BB00060680028E7D035E06068B0F5803F0BD072
:100BC00010B1B0F5A02F11D0286820F48030286033
:100BD000286820F4802002E0286840F480302860F3
:100BE000606890B1FFF7FCFD06460AE0286840F413
:100BF00080202860F0E700BFFFF7F2FD801B64282B
:100C000073D828688003F7D50CE0FFF7E9FD0646A6
:100C100005E000BFFFF7E4FD801B6428F0D82868DA
:100C20008003F7D420789A4E80074FF001094FF0E7
:100C3000000839D5686810F00C0F07D06868C0F359
:100C40008100022809D16868C00306D4286880079B
:100C500014D52069012808D110E02069B0B1C6F888
:100C60000090FFF7BDFD074605E00AE1FFF7B8FD7C
:100C7000C01B0228C4D828688007F7D52868616996
:100C800020F0F80040EAC10028600DE0C6F80080BE
:100C9000FFF7A6FD074604E0FFF7A2FDC01B0228F0
:100CA00023D828688007F7D4207800072CD5794806
:100CB000A169D9B1C0F80090FFF792FD074604E0A2
:100CC000FFF78EFDC01B02280FD8686A8007F7D592
:100CD00071484FF4FA510068B0FBF1F0009000BF8A
:100CE0000098411E0091FAD20EE080E0C0F800802A
:100CF000FFF776FD074604E0FFF772FDC01B0228F0
:100D000075D8686A8007F7D42078400760D5E8690D
:100D10000027C00008D4E86940F08050E861E86925
:100D2000012700F0805000905C480168C90513D489
:100D30000168834641F480710160FFF751FD8246EE
:100D400006E000BFFFF74CFDA0EB0A0064284ED878
:100D5000DBF80000C005F5D5E06801280AD008B12D
:100D6000052813D0286A20F001002862286A20F0A4
:100D7000040002E0286A40F001002862E06841F2C5
:100D8000883B98B1FFF72CFD82460BE0286A40F0C3
:100D900004002862EEE700BFFFF722FDA0EB0A0186
:100DA00059455AD8286A8007F6D50CE0FFF718FD98
:100DB000824605E0FFF714FDA0EB0A0159454CD827
:100DC000286A8007F6D41FB1E86920F08050E861F6
:100DD000E06988B36968C1F38101022944D002281F
:100DE000C6F8608004D0FFF7FBFC044638E034E02E
:100DF000FFF7F6FC074604E0FFF7F2FCC01B0228F1
:100E00002BD828688001F7D4206AB0F5803F05D13F
:100E10006868A16820F4003008436860D4E90801DC
:100E20000843696821F4741108436860C6F860904B
:100E3000FFF7D6FC044606E025E000BFFFF7D0FC34
:100E4000001B022809D828688001F7D51BE000BFE5
:100E5000FFF7C6FC001B022802D90320BDE8F88F6B
:100E600028688001F4D40EE00128F7D06868226A6F
:100E700000F48031914204D1616A00F4701088421C
:100E800001D00120EAE70020E8E70000001002405E
:100E900000004242800442421400002000700040E2
:100EA00010B5401EB0F1807F01D3012010BD4FF07E
:100EB000E02460610F21601700F0CFFC0020A061EA
:100EC00007202061002010BD7047704770B590F872
:100ED0003C20012A26D0012480F83C40022280F8E0
:100EE0003D2003685A689D6822F070060A68324304
:100EF0005A600D4B02689A4208D0B2F1804F05D07B
:100F00000A4B9A4202D00A4B9A4204D1496825F012
:100F100080031943916080F83D40002180F83C1027
:100F2000084670BD022070BD002C01400004004046
:100F30000008004070472DE9F04104460068C6688B
:100F400005694FF00007A90713D5B10711D5F91EA0
:100F5000016101202077206880698007204602D047
:100F6000FFF7E8FF04E000F0A3F8204600F050F996
:100F70002777680716D5700714D521686FF004002D
:100F80000861022020772068806910F4407F2046A5
:100F900002D0FFF7CFFF04E000F08AF8204600F00F
:100FA00037F92777280715D5300713D521686FF053
:100FB00008000861042020772068C0698007204667
:100FC00002D0FFF7B7FF04E000F072F8204600F00F
:100FD0001FF92777E80616D5F00614D521686FF0BB
:100FE00010000861082020772068C06910F4407F55
:100FF000204602D0FFF79EFF04E000F059F820469B
:1010000000F006F92777E80708D0F00706D0216836
:101010006FF001000861204600F04AF9280608D563
:10102000300606D521686FF0800008612046FFF782
:101030004BFF680608D5700606D521686FF04000A2
:101040000861204600F035F9A8060AD5B00608D593
:1010500021686FF0200008612046BDE8F041FFF7ED
:1010600034BFBDE8F081000000B585B000210091DB
:101070000191029103910068B0F1804F11D10A48AB
:10108000816941F0040181618069694600F00400D2
:101090000490032000900220019003900348FFF782
:1010A000A5FA05B000BD0000001002400008014094
:1010B000704770B5044690F83C0000260D460128A4
:1010C0000FD0012084F83C006AB1042A1DD0082A00
:1010D0002FD00C2A3FD00126002084F83C00304657
:1010E00070BD022070BD206800F014FB206881698B
:1010F00041F0080181612068816921F0040181616A
:10110000206881692A69114311E0206800F02AFBF8
:101110002068816941F4006181612068816921F45E
:1011200080618161206881692A6941EA02218161C7
:10113000D2E7206800F042FB2068C16941F0080155
:10114000C1612068C16921F00401C1612068C169E1
:101150002A69114311E0206800F05CFB2068C16936
:1011600041F40061C1612068C16921F48061C161FD
:101170002068C1692A6941EA0221C161ACE710B562
:10118000040003D094F83D0010B107E0012010BD29
:10119000002084F83C00204600F01EF8022084F86D
:1011A0003D00211D206800F06BFA012084F8460004
:1011B00084F83E0084F83F0084F8400084F8410041
:1011C00084F8420084F8430084F8440084F8450021
:1011D00084F83D00002010BD08B50068B0F1804FD4
:1011E00012D10A48C16941F00101C161C069002200
:1011F00000F00100009011461C20FFF75DFBBDE8E8
:1012000008401C20FFF74ABB08BD00000010024048
:101210007047000010B50446022249B104290ED0DF
:10122000082913D094F84100012816D0012010BDE0
:1012300094F83E000128F9D184F83E200FE094F89C
:101240003F000128F2D184F83F2008E094F84000E4
:101250000128EBD184F8402001E084F841200122EC
:10126000206800F049FA0F492068884203D1426C97
:1012700042F4004242642068884208D0B0F1804FB6
:1012800005D00949884202D00849884204D18168C2
:1012900001F00701062903D0016841F00101016056
:1012A000002010BD002C0140000400400008004058
:1012B00070477047FEE7000010B500210448FFF7B3
:1012C000A9FFBDE8104004210148FFF7A3BF0000BB
:1012D0004C0000203EB50024114800940194029473
:1012E0000E498460016004730475012505614FF4A3
:1012F00060214460C161FFF789F808B172B6FEE76A
:101300000920CDE90005694602940548FFF700F879
:10131000002801D072B6FEE73EBD00000024014067
:101320001C000020F0B585B000242D4800940194E5
:1013300002940394816941F010018161816901F097
:1013400010010491816941F020018161816901F0FE
:1013500020010491816941F004018161816901F0FA
:1013600004010491816941F00801816180691D4F88
:1013700000F008004FF44046049000223146384601
:10138000FFF729FA184D4FF46040CDE90005694692
:1013900002941648FFF72AF90420CDE900056946B2
:1013A00002941348FFF722F901200096CDE90104C9
:1013B0000220039069463846FFF718F900221146CB
:1013C0000820FFF779FA0820FFF768FA0022114693
:1013D0002820FFF771FA2820FFF760FA05B0F0BD6A
:1013E00000100240000C01400000111000100140EC
:1013F0000008014010B58AB0002407941C216846FB
:101400000894FEF7E1FE19484FF080410160472142
:10141000C0E901146321C0E903148461FFF7AFFE42
:1014200008B172B6FEE7079407A910480894FFF7C1
:101430004DFD08B172B6FEE76020CDE900040294CC
:101440000022694609480494FFF733FE08B172B6DA
:10145000FEE7042269460548FFF72BFE08B172B685
:10146000FEE70248FFF700FE0AB010BD4C00002066
:10147000FEE7000070B5094D04460122910328469D
:10148000FFF7A9F90122D1032846FFF7A4F9044880
:101490000021026851630068846370BD000C014044
:1014A0004C00002070B5264C208890B12549097861
:1014B000012911D0FFF7DEFF234DA87801280ED0B7
:1014C000224D4FF400512846FFF780F901281ED025
:1014D00025E000F055F8EFE700F03AF8ECE728785F
:1014E0000026012809D12088632802D2401C2080D0
:1014F00000E02E701E20FFF743F8687801281DD108
:10150000208810B1401E208013E06E7011E0218809
:10151000632901D2491C21801E20FFF731F84FF4C6
:1015200080412846FFF752F9012807D1208800287A
:10153000E8D1BDE870401E20FFF722B870BD000062
:1015400002000020000000201800002000100140D0
:1015500070B5094D0446012291032846FFF73BF977
:101560000122D1032846FFF736F9044801684C638D
:1015700000680021816370BD000C01404C00002018
:1015800003480021026851630068816370470000CE
:101590004C000020124B10B51C780021012C08D003
:1015A00001221048022C09D0032C0AD0042C12D19D
:1015B0000AE00D480278524202700CE0027041705D
:1015C00009E00170427006E0084C21800170417012
:1015D000847814B18170197010BD8270FBE700002F
:1015E000040000201800002000000020020000205D
:1015F000FEE770477047FFF7F9B830B593B0282180
:101600006846FEF7E1FD14210AA8FEF7DDFD00257E
:1016100001200F9510951195010412958DE8230076
:1016200004904FF4E010CDE90810022407946846B6
:10163000FFF7A6FA08B172B6FEE70AA90F2081E803
:1016400031004FF48060CDE90D0502210AA8FFF7B3
:10165000DBF908B172B6FEE74FF4004011900F9429
:101660000FA8FFF75BF9002801D072B6FEE713B0B0
:1016700030BD70470148FFF75EBC00004C00002001
:10168000F0B50268194B1A4C1A4D4FF0804798423A
:1016900005D0B84203D0A04201D0A84203D122F025
:1016A00070064A683243984205D0B84203D0A0423F
:1016B00001D0A84203D122F44074CA6822434C6985
:1016C00022F08002224302608A68C2620A68826253
:1016D000984201D109690163012141610169C9078A
:1016E00003D0016921F001010161F0BD002C01402E
:1016F000000400400008004010B501F01F03012164
:10170000046A99408C430462016A9A401143016261
:1017100010BD000030B5036A026A22F001020262C5
:101720004268846924F073050C682C4323F0020599
:101730008B682B430A4DA8420BD123F00805CB68D8
:1017400022F440722B434D6923F0040315438A6948
:101750002A434260846149684163036230BD0000EE
:10176000002C014030B5026A036A23F010030362C3
:10177000436884690D6824F4E64444EA05248D68CE
:1017800022F0200242EA05120B4DA8420ED1CD688C
:1017900022F0800242EA05124D6923F4406343EAD5
:1017A00085038D6922F0400243EA8503436084612A
:1017B00049688163026230BD002C014030B5036A84
:1017C000026A22F4807202624268C46923F40073E0
:1017D00024F073050C682C438D6843EA05230C4DF7
:1017E000A8420ED1CD6823F4006343EA05234D6976
:1017F00022F4405242EA05128D6923F4806342EAE2
:1018000005124260C4614968C163036230BD0000D3
:10181000002C014030B5046A026A22F48052026250
:101820004268C3690D6823F4E64343EA05238D68E3
:1018300024F4005444EA0534064DA84204D14D690D
:1018400022F4804242EA85124260C3614968016421
:10185000046230BD002C0140FEE70907090E002894
:1018600004DB00F1E02080F80014704700F00F0066
:1018700000F1E02080F8141D7047FEF7BFFFFFF76E
:10188000BCFEFFF74FFDFFF7B5FDFFF723FDFFF7A8
:1018900013FDFFF77FFEFFF705FEFAE701020203E3
:1018A0000405060708090A0B0C0D0E0F10100000A6
:1018B0000000000000000102030406070809000000
:1018C000E0180008000000201C00000028010008AB
:1018D000FC1800081C000020DC0600004401000881
:1018E00001003200000000000100000010000000B4
:0C18F0000000000000127A000000000060
:04000005080000ED02
:00000001FF
